{
  "_format": "hh-sol-artifact-1",
  "contractName": "SuperEther",
  "sourceName": "contracts/SuperEther.sol",
  "abi": [
    {
      "inputs": [
        {
          "internalType": "uint256",
          "name": "cap",
          "type": "uint256"
        },
        {
          "internalType": "uint256",
          "name": "initialSupply",
          "type": "uint256"
        },
        {
          "internalType": "uint256",
          "name": "reward",
          "type": "uint256"
        }
      ],
      "stateMutability": "nonpayable",
      "type": "constructor"
    },
    {
      "anonymous": false,
      "inputs": [
        {
          "indexed": true,
          "internalType": "address",
          "name": "owner",
          "type": "address"
        },
        {
          "indexed": true,
          "internalType": "address",
          "name": "spender",
          "type": "address"
        },
        {
          "indexed": false,
          "internalType": "uint256",
          "name": "value",
          "type": "uint256"
        }
      ],
      "name": "Approval",
      "type": "event"
    },
    {
      "anonymous": false,
      "inputs": [
        {
          "indexed": true,
          "internalType": "address",
          "name": "from",
          "type": "address"
        },
        {
          "indexed": true,
          "internalType": "address",
          "name": "to",
          "type": "address"
        },
        {
          "indexed": false,
          "internalType": "uint256",
          "name": "value",
          "type": "uint256"
        }
      ],
      "name": "Transfer",
      "type": "event"
    },
    {
      "inputs": [
        {
          "internalType": "address",
          "name": "owner",
          "type": "address"
        },
        {
          "internalType": "address",
          "name": "spender",
          "type": "address"
        }
      ],
      "name": "allowance",
      "outputs": [
        {
          "internalType": "uint256",
          "name": "",
          "type": "uint256"
        }
      ],
      "stateMutability": "view",
      "type": "function"
    },
    {
      "inputs": [
        {
          "internalType": "address",
          "name": "spender",
          "type": "address"
        },
        {
          "internalType": "uint256",
          "name": "amount",
          "type": "uint256"
        }
      ],
      "name": "approve",
      "outputs": [
        {
          "internalType": "bool",
          "name": "",
          "type": "bool"
        }
      ],
      "stateMutability": "nonpayable",
      "type": "function"
    },
    {
      "inputs": [
        {
          "internalType": "address",
          "name": "account",
          "type": "address"
        }
      ],
      "name": "balanceOf",
      "outputs": [
        {
          "internalType": "uint256",
          "name": "",
          "type": "uint256"
        }
      ],
      "stateMutability": "view",
      "type": "function"
    },
    {
      "inputs": [],
      "name": "blockreward",
      "outputs": [
        {
          "internalType": "uint256",
          "name": "",
          "type": "uint256"
        }
      ],
      "stateMutability": "view",
      "type": "function"
    },
    {
      "inputs": [
        {
          "internalType": "uint256",
          "name": "amount",
          "type": "uint256"
        }
      ],
      "name": "burn",
      "outputs": [],
      "stateMutability": "nonpayable",
      "type": "function"
    },
    {
      "inputs": [
        {
          "internalType": "address",
          "name": "account",
          "type": "address"
        },
        {
          "internalType": "uint256",
          "name": "amount",
          "type": "uint256"
        }
      ],
      "name": "burnFrom",
      "outputs": [],
      "stateMutability": "nonpayable",
      "type": "function"
    },
    {
      "inputs": [],
      "name": "cap",
      "outputs": [
        {
          "internalType": "uint256",
          "name": "",
          "type": "uint256"
        }
      ],
      "stateMutability": "view",
      "type": "function"
    },
    {
      "inputs": [],
      "name": "decimals",
      "outputs": [
        {
          "internalType": "uint8",
          "name": "",
          "type": "uint8"
        }
      ],
      "stateMutability": "view",
      "type": "function"
    },
    {
      "inputs": [
        {
          "internalType": "address",
          "name": "spender",
          "type": "address"
        },
        {
          "internalType": "uint256",
          "name": "subtractedValue",
          "type": "uint256"
        }
      ],
      "name": "decreaseAllowance",
      "outputs": [
        {
          "internalType": "bool",
          "name": "",
          "type": "bool"
        }
      ],
      "stateMutability": "nonpayable",
      "type": "function"
    },
    {
      "inputs": [],
      "name": "destroy",
      "outputs": [],
      "stateMutability": "nonpayable",
      "type": "function"
    },
    {
      "inputs": [
        {
          "internalType": "address",
          "name": "spender",
          "type": "address"
        },
        {
          "internalType": "uint256",
          "name": "addedValue",
          "type": "uint256"
        }
      ],
      "name": "increaseAllowance",
      "outputs": [
        {
          "internalType": "bool",
          "name": "",
          "type": "bool"
        }
      ],
      "stateMutability": "nonpayable",
      "type": "function"
    },
    {
      "inputs": [],
      "name": "name",
      "outputs": [
        {
          "internalType": "string",
          "name": "",
          "type": "string"
        }
      ],
      "stateMutability": "view",
      "type": "function"
    },
    {
      "inputs": [],
      "name": "owner",
      "outputs": [
        {
          "internalType": "address payable",
          "name": "",
          "type": "address"
        }
      ],
      "stateMutability": "view",
      "type": "function"
    },
    {
      "inputs": [
        {
          "internalType": "uint256",
          "name": "reward",
          "type": "uint256"
        }
      ],
      "name": "setMinerReward",
      "outputs": [],
      "stateMutability": "nonpayable",
      "type": "function"
    },
    {
      "inputs": [],
      "name": "symbol",
      "outputs": [
        {
          "internalType": "string",
          "name": "",
          "type": "string"
        }
      ],
      "stateMutability": "view",
      "type": "function"
    },
    {
      "inputs": [],
      "name": "totalSupply",
      "outputs": [
        {
          "internalType": "uint256",
          "name": "",
          "type": "uint256"
        }
      ],
      "stateMutability": "view",
      "type": "function"
    },
    {
      "inputs": [
        {
          "internalType": "address",
          "name": "to",
          "type": "address"
        },
        {
          "internalType": "uint256",
          "name": "amount",
          "type": "uint256"
        }
      ],
      "name": "transfer",
      "outputs": [
        {
          "internalType": "bool",
          "name": "",
          "type": "bool"
        }
      ],
      "stateMutability": "nonpayable",
      "type": "function"
    },
    {
      "inputs": [
        {
          "internalType": "address",
          "name": "from",
          "type": "address"
        },
        {
          "internalType": "address",
          "name": "to",
          "type": "address"
        },
        {
          "internalType": "uint256",
          "name": "amount",
          "type": "uint256"
        }
      ],
      "name": "transferFrom",
      "outputs": [
        {
          "internalType": "bool",
          "name": "",
          "type": "bool"
        }
      ],
      "stateMutability": "nonpayable",
      "type": "function"
    }
  ],
  "bytecode": "0x60a06040523480156200001157600080fd5b5060405162002d8338038062002d838339818101604052810190620000379190620005d4565b620000476200021c60201b60201c565b600a620000559190620007c0565b8362000062919062000811565b6040518060400160405280600a81526020017f53757065724574686572000000000000000000000000000000000000000000008152506040518060400160405280600481526020017f53455448000000000000000000000000000000000000000000000000000000008152508160039081620000df919062000acc565b508060049081620000f1919062000acc565b505050600081116200013a576040517f08c379a0000000000000000000000000000000000000000000000000000000008152600401620001319062000c14565b60405180910390fd5b80608081815250505033600560006101000a81548173ffffffffffffffffffffffffffffffffffffffff021916908373ffffffffffffffffffffffffffffffffffffffff160217905550620001e2600560009054906101000a900473ffffffffffffffffffffffffffffffffffffffff16620001bb6200021c60201b60201c565b600a620001c99190620007c0565b84620001d6919062000811565b6200022560201b60201c565b620001f26200021c60201b60201c565b600a620002009190620007c0565b816200020d919062000811565b60068190555050505062000d83565b60006012905090565b62000235620002b660201b60201c565b816200024b620002c060201b620004501760201c565b62000257919062000c36565b11156200029b576040517f08c379a0000000000000000000000000000000000000000000000000000000008152600401620002929062000cc1565b60405180910390fd5b620002b28282620002ca60201b620009531760201c565b5050565b6000608051905090565b6000600254905090565b620002da620002b660201b60201c565b81620002f0620002c060201b620004501760201c565b620002fc919062000c36565b111562000340576040517f08c379a0000000000000000000000000000000000000000000000000000000008152600401620003379062000cc1565b60405180910390fd5b6200035782826200035b60201b620009bd1760201c565b5050565b600073ffffffffffffffffffffffffffffffffffffffff168273ffffffffffffffffffffffffffffffffffffffff1603620003cd576040517f08c379a0000000000000000000000000000000000000000000000000000000008152600401620003c49062000d33565b60405180910390fd5b620003e160008383620004c860201b60201c565b8060026000828254620003f5919062000c36565b92505081905550806000808473ffffffffffffffffffffffffffffffffffffffff1673ffffffffffffffffffffffffffffffffffffffff168152602001908152602001600020600082825401925050819055508173ffffffffffffffffffffffffffffffffffffffff16600073ffffffffffffffffffffffffffffffffffffffff167fddf252ad1be2c89b69c2b068fc378daa952ba7f163c4a11628f55a4df523b3ef83604051620004a8919062000d66565b60405180910390a3620004c4600083836200058a60201b60201c565b5050565b600073ffffffffffffffffffffffffffffffffffffffff168373ffffffffffffffffffffffffffffffffffffffff16141580156200053257504173ffffffffffffffffffffffffffffffffffffffff168273ffffffffffffffffffffffffffffffffffffffff1614155b80156200056c5750600073ffffffffffffffffffffffffffffffffffffffff164173ffffffffffffffffffffffffffffffffffffffff1614155b50620005858383836200058f60201b62000b211760201c565b505050565b505050565b505050565b600080fd5b6000819050919050565b620005ae8162000599565b8114620005ba57600080fd5b50565b600081519050620005ce81620005a3565b92915050565b600080600060608486031215620005f057620005ef62000594565b5b60006200060086828701620005bd565b93505060206200061386828701620005bd565b92505060406200062686828701620005bd565b9150509250925092565b7f4e487b7100000000000000000000000000000000000000000000000000000000600052601160045260246000fd5b60008160011c9050919050565b6000808291508390505b6001851115620006be5780860481111562000696576200069562000630565b5b6001851615620006a65780820291505b8081029050620006b6856200065f565b945062000676565b94509492505050565b600082620006d95760019050620007ac565b81620006e95760009050620007ac565b81600181146200070257600281146200070d5762000743565b6001915050620007ac565b60ff84111562000722576200072162000630565b5b8360020a9150848211156200073c576200073b62000630565b5b50620007ac565b5060208310610133831016604e8410600b84101617156200077d5782820a90508381111562000777576200077662000630565b5b620007ac565b6200078c84848460016200066c565b92509050818404811115620007a657620007a562000630565b5b81810290505b9392505050565b600060ff82169050919050565b6000620007cd8262000599565b9150620007da83620007b3565b9250620008097fffffffffffffffffffffffffffffffffffffffffffffffffffffffffffffffff8484620006c7565b905092915050565b60006200081e8262000599565b91506200082b8362000599565b92508282026200083b8162000599565b9150828204841483151762000855576200085462000630565b5b5092915050565b600081519050919050565b7f4e487b7100000000000000000000000000000000000000000000000000000000600052604160045260246000fd5b7f4e487b7100000000000000000000000000000000000000000000000000000000600052602260045260246000fd5b60006002820490506001821680620008de57607f821691505b602082108103620008f457620008f362000896565b5b50919050565b60008190508160005260206000209050919050565b60006020601f8301049050919050565b600082821b905092915050565b6000600883026200095e7fffffffffffffffffffffffffffffffffffffffffffffffffffffffffffffffff826200091f565b6200096a86836200091f565b95508019841693508086168417925050509392505050565b6000819050919050565b6000620009ad620009a7620009a18462000599565b62000982565b62000599565b9050919050565b6000819050919050565b620009c9836200098c565b620009e1620009d882620009b4565b8484546200092c565b825550505050565b600090565b620009f8620009e9565b62000a05818484620009be565b505050565b5b8181101562000a2d5762000a21600082620009ee565b60018101905062000a0b565b5050565b601f82111562000a7c5762000a4681620008fa565b62000a51846200090f565b8101602085101562000a61578190505b62000a7962000a70856200090f565b83018262000a0a565b50505b505050565b600082821c905092915050565b600062000aa16000198460080262000a81565b1980831691505092915050565b600062000abc838362000a8e565b9150826002028217905092915050565b62000ad7826200085c565b67ffffffffffffffff81111562000af35762000af262000867565b5b62000aff8254620008c5565b62000b0c82828562000a31565b600060209050601f83116001811462000b44576000841562000b2f578287015190505b62000b3b858262000aae565b86555062000bab565b601f19841662000b5486620008fa565b60005b8281101562000b7e5784890151825560018201915060208501945060208101905062000b57565b8683101562000b9e578489015162000b9a601f89168262000a8e565b8355505b6001600288020188555050505b505050505050565b600082825260208201905092915050565b7f45524332304361707065643a2063617020697320300000000000000000000000600082015250565b600062000bfc60158362000bb3565b915062000c098262000bc4565b602082019050919050565b6000602082019050818103600083015262000c2f8162000bed565b9050919050565b600062000c438262000599565b915062000c508362000599565b925082820190508082111562000c6b5762000c6a62000630565b5b92915050565b7f45524332304361707065643a2063617020657863656564656400000000000000600082015250565b600062000ca960198362000bb3565b915062000cb68262000c71565b602082019050919050565b6000602082019050818103600083015262000cdc8162000c9a565b9050919050565b7f45524332303a206d696e7420746f20746865207a65726f206164647265737300600082015250565b600062000d1b601f8362000bb3565b915062000d288262000ce3565b602082019050919050565b6000602082019050818103600083015262000d4e8162000d0c565b9050919050565b62000d608162000599565b82525050565b600060208201905062000d7d600083018462000d55565b92915050565b608051611fe462000d9f60003960006104960152611fe46000f3fe608060405234801561001057600080fd5b50600436106101165760003560e01c806379cc6790116100a257806395d89b411161007157806395d89b41146102cf578063a457c2d7146102ed578063a9059cbb1461031d578063cf70fa401461034d578063dd62ed3e1461036b57610116565b806379cc67901461026f578063816caed51461028b57806383197ef0146102a75780638da5cb5b146102b157610116565b8063313ce567116100e9578063313ce567146101b7578063355274ea146101d557806339509351146101f357806342966c681461022357806370a082311461023f57610116565b806306fdde031461011b578063095ea7b31461013957806318160ddd1461016957806323b872dd14610187575b600080fd5b61012361039b565b6040516101309190611378565b60405180910390f35b610153600480360381019061014e9190611433565b61042d565b604051610160919061148e565b60405180910390f35b610171610450565b60405161017e91906114b8565b60405180910390f35b6101a1600480360381019061019c91906114d3565b61045a565b6040516101ae919061148e565b60405180910390f35b6101bf610489565b6040516101cc9190611542565b60405180910390f35b6101dd610492565b6040516101ea91906114b8565b60405180910390f35b61020d60048036038101906102089190611433565b6104ba565b60405161021a919061148e565b60405180910390f35b61023d6004803603810190610238919061155d565b6104f1565b005b6102596004803603810190610254919061158a565b610505565b60405161026691906114b8565b60405180910390f35b61028960048036038101906102849190611433565b61054d565b005b6102a560048036038101906102a0919061155d565b61056d565b005b6102af610625565b005b6102b96106f0565b6040516102c691906115d8565b60405180910390f35b6102d7610716565b6040516102e49190611378565b60405180910390f35b61030760048036038101906103029190611433565b6107a8565b604051610314919061148e565b60405180910390f35b61033760048036038101906103329190611433565b61081f565b604051610344919061148e565b60405180910390f35b6103556108c6565b60405161036291906114b8565b60405180910390f35b610385600480360381019061038091906115f3565b6108cc565b60405161039291906114b8565b60405180910390f35b6060600380546103aa90611662565b80601f01602080910402602001604051908101604052809291908181526020018280546103d690611662565b80156104235780601f106103f857610100808354040283529160200191610423565b820191906000526020600020905b81548152906001019060200180831161040657829003601f168201915b5050505050905090565b600080610438610b26565b9050610445818585610b2e565b600191505092915050565b6000600254905090565b600080610465610b26565b9050610472858285610cf7565b61047d858585610d83565b60019150509392505050565b60006012905090565b60007f0000000000000000000000000000000000000000000000000000000000000000905090565b6000806104c5610b26565b90506104e68185856104d785896108cc565b6104e191906116c2565b610b2e565b600191505092915050565b6105026104fc610b26565b82610ff9565b50565b60008060008373ffffffffffffffffffffffffffffffffffffffff1673ffffffffffffffffffffffffffffffffffffffff168152602001908152602001600020549050919050565b61055f82610559610b26565b83610cf7565b6105698282610ff9565b5050565b600560009054906101000a900473ffffffffffffffffffffffffffffffffffffffff1673ffffffffffffffffffffffffffffffffffffffff163373ffffffffffffffffffffffffffffffffffffffff16146105fd576040517f08c379a00000000000000000000000000000000000000000000000000000000081526004016105f490611768565b60405180910390fd5b610605610489565b600a61061191906118bb565b8161061c9190611906565b60068190555050565b600560009054906101000a900473ffffffffffffffffffffffffffffffffffffffff1673ffffffffffffffffffffffffffffffffffffffff163373ffffffffffffffffffffffffffffffffffffffff16146106b5576040517f08c379a00000000000000000000000000000000000000000000000000000000081526004016106ac90611768565b60405180910390fd5b600560009054906101000a900473ffffffffffffffffffffffffffffffffffffffff1673ffffffffffffffffffffffffffffffffffffffff16ff5b600560009054906101000a900473ffffffffffffffffffffffffffffffffffffffff1681565b60606004805461072590611662565b80601f016020809104026020016040519081016040528092919081815260200182805461075190611662565b801561079e5780601f106107735761010080835404028352916020019161079e565b820191906000526020600020905b81548152906001019060200180831161078157829003601f168201915b5050505050905090565b6000806107b3610b26565b905060006107c182866108cc565b905083811015610806576040517f08c379a00000000000000000000000000000000000000000000000000000000081526004016107fd906119ba565b60405180910390fd5b6108138286868403610b2e565b60019250505092915050565b60008273ffffffffffffffffffffffffffffffffffffffff163373ffffffffffffffffffffffffffffffffffffffff160361088f576040517f08c379a000000000000000000000000000000000000000000000000000000000815260040161088690611a4c565b60405180910390fd5b6108bc600560009054906101000a900473ffffffffffffffffffffffffffffffffffffffff168484610d83565b6001905092915050565b60065481565b6000600160008473ffffffffffffffffffffffffffffffffffffffff1673ffffffffffffffffffffffffffffffffffffffff16815260200190815260200160002060008373ffffffffffffffffffffffffffffffffffffffff1673ffffffffffffffffffffffffffffffffffffffff16815260200190815260200160002054905092915050565b61095b610492565b81610964610450565b61096e91906116c2565b11156109af576040517f08c379a00000000000000000000000000000000000000000000000000000000081526004016109a690611ab8565b60405180910390fd5b6109b982826109bd565b5050565b600073ffffffffffffffffffffffffffffffffffffffff168273ffffffffffffffffffffffffffffffffffffffff1603610a2c576040517f08c379a0000000000000000000000000000000000000000000000000000000008152600401610a2390611b24565b60405180910390fd5b610a38600083836111c6565b8060026000828254610a4a91906116c2565b92505081905550806000808473ffffffffffffffffffffffffffffffffffffffff1673ffffffffffffffffffffffffffffffffffffffff168152602001908152602001600020600082825401925050819055508173ffffffffffffffffffffffffffffffffffffffff16600073ffffffffffffffffffffffffffffffffffffffff167fddf252ad1be2c89b69c2b068fc378daa952ba7f163c4a11628f55a4df523b3ef83604051610afb91906114b8565b60405180910390a3610b0f60008383611279565b5050565b610b1f4160065461127e565b565b505050565b600033905090565b600073ffffffffffffffffffffffffffffffffffffffff168373ffffffffffffffffffffffffffffffffffffffff1603610b9d576040517f08c379a0000000000000000000000000000000000000000000000000000000008152600401610b9490611bb6565b60405180910390fd5b600073ffffffffffffffffffffffffffffffffffffffff168273ffffffffffffffffffffffffffffffffffffffff1603610c0c576040517f08c379a0000000000000000000000000000000000000000000000000000000008152600401610c0390611c48565b60405180910390fd5b80600160008573ffffffffffffffffffffffffffffffffffffffff1673ffffffffffffffffffffffffffffffffffffffff16815260200190815260200160002060008473ffffffffffffffffffffffffffffffffffffffff1673ffffffffffffffffffffffffffffffffffffffff168152602001908152602001600020819055508173ffffffffffffffffffffffffffffffffffffffff168373ffffffffffffffffffffffffffffffffffffffff167f8c5be1e5ebec7d5bd14f71427d1e84f3dd0314c0f7b2291e5b200ac8c7c3b92583604051610cea91906114b8565b60405180910390a3505050565b6000610d0384846108cc565b90507fffffffffffffffffffffffffffffffffffffffffffffffffffffffffffffffff8114610d7d5781811015610d6f576040517f08c379a0000000000000000000000000000000000000000000000000000000008152600401610d6690611cb4565b60405180910390fd5b610d7c8484848403610b2e565b5b50505050565b600073ffffffffffffffffffffffffffffffffffffffff168373ffffffffffffffffffffffffffffffffffffffff1603610df2576040517f08c379a0000000000000000000000000000000000000000000000000000000008152600401610de990611d46565b60405180910390fd5b600073ffffffffffffffffffffffffffffffffffffffff168273ffffffffffffffffffffffffffffffffffffffff1603610e61576040517f08c379a0000000000000000000000000000000000000000000000000000000008152600401610e5890611dd8565b60405180910390fd5b610e6c8383836111c6565b60008060008573ffffffffffffffffffffffffffffffffffffffff1673ffffffffffffffffffffffffffffffffffffffff16815260200190815260200160002054905081811015610ef2576040517f08c379a0000000000000000000000000000000000000000000000000000000008152600401610ee990611e6a565b60405180910390fd5b8181036000808673ffffffffffffffffffffffffffffffffffffffff1673ffffffffffffffffffffffffffffffffffffffff16815260200190815260200160002081905550816000808573ffffffffffffffffffffffffffffffffffffffff1673ffffffffffffffffffffffffffffffffffffffff168152602001908152602001600020600082825401925050819055508273ffffffffffffffffffffffffffffffffffffffff168473ffffffffffffffffffffffffffffffffffffffff167fddf252ad1be2c89b69c2b068fc378daa952ba7f163c4a11628f55a4df523b3ef84604051610fe091906114b8565b60405180910390a3610ff3848484611279565b50505050565b600073ffffffffffffffffffffffffffffffffffffffff168273ffffffffffffffffffffffffffffffffffffffff1603611068576040517f08c379a000000000000000000000000000000000000000000000000000000000815260040161105f90611efc565b60405180910390fd5b611074826000836111c6565b60008060008473ffffffffffffffffffffffffffffffffffffffff1673ffffffffffffffffffffffffffffffffffffffff168152602001908152602001600020549050818110156110fa576040517f08c379a00000000000000000000000000000000000000000000000000000000081526004016110f190611f8e565b60405180910390fd5b8181036000808573ffffffffffffffffffffffffffffffffffffffff1673ffffffffffffffffffffffffffffffffffffffff1681526020019081526020016000208190555081600260008282540392505081905550600073ffffffffffffffffffffffffffffffffffffffff168373ffffffffffffffffffffffffffffffffffffffff167fddf252ad1be2c89b69c2b068fc378daa952ba7f163c4a11628f55a4df523b3ef846040516111ad91906114b8565b60405180910390a36111c183600084611279565b505050565b600073ffffffffffffffffffffffffffffffffffffffff168373ffffffffffffffffffffffffffffffffffffffff161415801561122f57504173ffffffffffffffffffffffffffffffffffffffff168273ffffffffffffffffffffffffffffffffffffffff1614155b80156112685750600073ffffffffffffffffffffffffffffffffffffffff164173ffffffffffffffffffffffffffffffffffffffff1614155b50611274838383610b21565b505050565b505050565b611286610492565b8161128f610450565b61129991906116c2565b11156112da576040517f08c379a00000000000000000000000000000000000000000000000000000000081526004016112d190611ab8565b60405180910390fd5b6112e48282610953565b5050565b600081519050919050565b600082825260208201905092915050565b60005b83811015611322578082015181840152602081019050611307565b60008484015250505050565b6000601f19601f8301169050919050565b600061134a826112e8565b61135481856112f3565b9350611364818560208601611304565b61136d8161132e565b840191505092915050565b60006020820190508181036000830152611392818461133f565b905092915050565b600080fd5b600073ffffffffffffffffffffffffffffffffffffffff82169050919050565b60006113ca8261139f565b9050919050565b6113da816113bf565b81146113e557600080fd5b50565b6000813590506113f7816113d1565b92915050565b6000819050919050565b611410816113fd565b811461141b57600080fd5b50565b60008135905061142d81611407565b92915050565b6000806040838503121561144a5761144961139a565b5b6000611458858286016113e8565b92505060206114698582860161141e565b9150509250929050565b60008115159050919050565b61148881611473565b82525050565b60006020820190506114a3600083018461147f565b92915050565b6114b2816113fd565b82525050565b60006020820190506114cd60008301846114a9565b92915050565b6000806000606084860312156114ec576114eb61139a565b5b60006114fa868287016113e8565b935050602061150b868287016113e8565b925050604061151c8682870161141e565b9150509250925092565b600060ff82169050919050565b61153c81611526565b82525050565b60006020820190506115576000830184611533565b92915050565b6000602082840312156115735761157261139a565b5b60006115818482850161141e565b91505092915050565b6000602082840312156115a05761159f61139a565b5b60006115ae848285016113e8565b91505092915050565b60006115c28261139f565b9050919050565b6115d2816115b7565b82525050565b60006020820190506115ed60008301846115c9565b92915050565b6000806040838503121561160a5761160961139a565b5b6000611618858286016113e8565b9250506020611629858286016113e8565b9150509250929050565b7f4e487b7100000000000000000000000000000000000000000000000000000000600052602260045260246000fd5b6000600282049050600182168061167a57607f821691505b60208210810361168d5761168c611633565b5b50919050565b7f4e487b7100000000000000000000000000000000000000000000000000000000600052601160045260246000fd5b60006116cd826113fd565b91506116d8836113fd565b92508282019050808211156116f0576116ef611693565b5b92915050565b7f2a2a4f6e6c79204f776e65722063616e2065786563757465207468697320747260008201527f616e73616374696f6e202a2a0000000000000000000000000000000000000000602082015250565b6000611752602c836112f3565b915061175d826116f6565b604082019050919050565b6000602082019050818103600083015261178181611745565b9050919050565b60008160011c9050919050565b6000808291508390505b60018511156117df578086048111156117bb576117ba611693565b5b60018516156117ca5780820291505b80810290506117d885611788565b945061179f565b94509492505050565b6000826117f857600190506118b4565b8161180657600090506118b4565b816001811461181c576002811461182657611855565b60019150506118b4565b60ff84111561183857611837611693565b5b8360020a91508482111561184f5761184e611693565b5b506118b4565b5060208310610133831016604e8410600b841016171561188a5782820a90508381111561188557611884611693565b5b6118b4565b6118978484846001611795565b925090508184048111156118ae576118ad611693565b5b81810290505b9392505050565b60006118c6826113fd565b91506118d183611526565b92506118fe7fffffffffffffffffffffffffffffffffffffffffffffffffffffffffffffffff84846117e8565b905092915050565b6000611911826113fd565b915061191c836113fd565b925082820261192a816113fd565b9150828204841483151761194157611940611693565b5b5092915050565b7f45524332303a2064656372656173656420616c6c6f77616e63652062656c6f7760008201527f207a65726f000000000000000000000000000000000000000000000000000000602082015250565b60006119a46025836112f3565b91506119af82611948565b604082019050919050565b600060208201905081810360008301526119d381611997565b9050919050565b7f2a2a4572726f72206c6f672d20596f752061726520747279696e6720746f207360008201527f656e6420746f6b656e7320746f20796f7572206f776e20616464726573732a2a602082015250565b6000611a366040836112f3565b9150611a41826119da565b604082019050919050565b60006020820190508181036000830152611a6581611a29565b9050919050565b7f45524332304361707065643a2063617020657863656564656400000000000000600082015250565b6000611aa26019836112f3565b9150611aad82611a6c565b602082019050919050565b60006020820190508181036000830152611ad181611a95565b9050919050565b7f45524332303a206d696e7420746f20746865207a65726f206164647265737300600082015250565b6000611b0e601f836112f3565b9150611b1982611ad8565b602082019050919050565b60006020820190508181036000830152611b3d81611b01565b9050919050565b7f45524332303a20617070726f76652066726f6d20746865207a65726f2061646460008201527f7265737300000000000000000000000000000000000000000000000000000000602082015250565b6000611ba06024836112f3565b9150611bab82611b44565b604082019050919050565b60006020820190508181036000830152611bcf81611b93565b9050919050565b7f45524332303a20617070726f766520746f20746865207a65726f20616464726560008201527f7373000000000000000000000000000000000000000000000000000000000000602082015250565b6000611c326022836112f3565b9150611c3d82611bd6565b604082019050919050565b60006020820190508181036000830152611c6181611c25565b9050919050565b7f45524332303a20696e73756666696369656e7420616c6c6f77616e6365000000600082015250565b6000611c9e601d836112f3565b9150611ca982611c68565b602082019050919050565b60006020820190508181036000830152611ccd81611c91565b9050919050565b7f45524332303a207472616e736665722066726f6d20746865207a65726f20616460008201527f6472657373000000000000000000000000000000000000000000000000000000602082015250565b6000611d306025836112f3565b9150611d3b82611cd4565b604082019050919050565b60006020820190508181036000830152611d5f81611d23565b9050919050565b7f45524332303a207472616e7366657220746f20746865207a65726f206164647260008201527f6573730000000000000000000000000000000000000000000000000000000000602082015250565b6000611dc26023836112f3565b9150611dcd82611d66565b604082019050919050565b60006020820190508181036000830152611df181611db5565b9050919050565b7f45524332303a207472616e7366657220616d6f756e742065786365656473206260008201527f616c616e63650000000000000000000000000000000000000000000000000000602082015250565b6000611e546026836112f3565b9150611e5f82611df8565b604082019050919050565b60006020820190508181036000830152611e8381611e47565b9050919050565b7f45524332303a206275726e2066726f6d20746865207a65726f2061646472657360008201527f7300000000000000000000000000000000000000000000000000000000000000602082015250565b6000611ee66021836112f3565b9150611ef182611e8a565b604082019050919050565b60006020820190508181036000830152611f1581611ed9565b9050919050565b7f45524332303a206275726e20616d6f756e7420657863656564732062616c616e60008201527f6365000000000000000000000000000000000000000000000000000000000000602082015250565b6000611f786022836112f3565b9150611f8382611f1c565b604082019050919050565b60006020820190508181036000830152611fa781611f6b565b905091905056fea2646970667358221220690a8d52feb360c05abb144e8383a94004b9b2c89e83757e835ef99d8c2a29fb64736f6c63430008110033",
  "linkReferences": {},
  "deployedLinkReferences": {}
}