{
  "_format": "hh-sol-artifact-1",
  "contractName": "SuperEther",
  "sourceName": "contracts/SuperEther.sol",
  "abi": [
    {
      "inputs": [
        {
          "internalType": "uint256",
          "name": "cap",
          "type": "uint256"
        },
        {
          "internalType": "uint256",
          "name": "initialSupply",
          "type": "uint256"
        },
        {
          "internalType": "uint256",
          "name": "reward",
          "type": "uint256"
        }
      ],
      "stateMutability": "nonpayable",
      "type": "constructor"
    },
    {
      "anonymous": false,
      "inputs": [
        {
          "indexed": true,
          "internalType": "address",
          "name": "owner",
          "type": "address"
        },
        {
          "indexed": true,
          "internalType": "address",
          "name": "spender",
          "type": "address"
        },
        {
          "indexed": false,
          "internalType": "uint256",
          "name": "value",
          "type": "uint256"
        }
      ],
      "name": "Approval",
      "type": "event"
    },
    {
      "anonymous": false,
      "inputs": [
        {
          "indexed": true,
          "internalType": "address",
          "name": "from",
          "type": "address"
        },
        {
          "indexed": true,
          "internalType": "address",
          "name": "to",
          "type": "address"
        },
        {
          "indexed": false,
          "internalType": "uint256",
          "name": "value",
          "type": "uint256"
        }
      ],
      "name": "Transfer",
      "type": "event"
    },
    {
      "inputs": [
        {
          "internalType": "address",
          "name": "owner",
          "type": "address"
        },
        {
          "internalType": "address",
          "name": "spender",
          "type": "address"
        }
      ],
      "name": "allowance",
      "outputs": [
        {
          "internalType": "uint256",
          "name": "",
          "type": "uint256"
        }
      ],
      "stateMutability": "view",
      "type": "function"
    },
    {
      "inputs": [
        {
          "internalType": "address",
          "name": "spender",
          "type": "address"
        },
        {
          "internalType": "uint256",
          "name": "amount",
          "type": "uint256"
        }
      ],
      "name": "approve",
      "outputs": [
        {
          "internalType": "bool",
          "name": "",
          "type": "bool"
        }
      ],
      "stateMutability": "nonpayable",
      "type": "function"
    },
    {
      "inputs": [
        {
          "internalType": "address",
          "name": "account",
          "type": "address"
        }
      ],
      "name": "balanceOf",
      "outputs": [
        {
          "internalType": "uint256",
          "name": "",
          "type": "uint256"
        }
      ],
      "stateMutability": "view",
      "type": "function"
    },
    {
      "inputs": [],
      "name": "blockreward",
      "outputs": [
        {
          "internalType": "uint256",
          "name": "",
          "type": "uint256"
        }
      ],
      "stateMutability": "view",
      "type": "function"
    },
    {
      "inputs": [
        {
          "internalType": "uint256",
          "name": "amount",
          "type": "uint256"
        }
      ],
      "name": "burn",
      "outputs": [],
      "stateMutability": "nonpayable",
      "type": "function"
    },
    {
      "inputs": [
        {
          "internalType": "address",
          "name": "account",
          "type": "address"
        },
        {
          "internalType": "uint256",
          "name": "amount",
          "type": "uint256"
        }
      ],
      "name": "burnFrom",
      "outputs": [],
      "stateMutability": "nonpayable",
      "type": "function"
    },
    {
      "inputs": [],
      "name": "cap",
      "outputs": [
        {
          "internalType": "uint256",
          "name": "",
          "type": "uint256"
        }
      ],
      "stateMutability": "view",
      "type": "function"
    },
    {
      "inputs": [],
      "name": "decimals",
      "outputs": [
        {
          "internalType": "uint8",
          "name": "",
          "type": "uint8"
        }
      ],
      "stateMutability": "view",
      "type": "function"
    },
    {
      "inputs": [
        {
          "internalType": "address",
          "name": "spender",
          "type": "address"
        },
        {
          "internalType": "uint256",
          "name": "subtractedValue",
          "type": "uint256"
        }
      ],
      "name": "decreaseAllowance",
      "outputs": [
        {
          "internalType": "bool",
          "name": "",
          "type": "bool"
        }
      ],
      "stateMutability": "nonpayable",
      "type": "function"
    },
    {
      "inputs": [],
      "name": "destroy",
      "outputs": [],
      "stateMutability": "nonpayable",
      "type": "function"
    },
    {
      "inputs": [
        {
          "internalType": "address",
          "name": "spender",
          "type": "address"
        },
        {
          "internalType": "uint256",
          "name": "addedValue",
          "type": "uint256"
        }
      ],
      "name": "increaseAllowance",
      "outputs": [
        {
          "internalType": "bool",
          "name": "",
          "type": "bool"
        }
      ],
      "stateMutability": "nonpayable",
      "type": "function"
    },
    {
      "inputs": [],
      "name": "name",
      "outputs": [
        {
          "internalType": "string",
          "name": "",
          "type": "string"
        }
      ],
      "stateMutability": "view",
      "type": "function"
    },
    {
      "inputs": [],
      "name": "owner",
      "outputs": [
        {
          "internalType": "address payable",
          "name": "",
          "type": "address"
        }
      ],
      "stateMutability": "view",
      "type": "function"
    },
    {
      "inputs": [
        {
          "internalType": "uint256",
          "name": "reward",
          "type": "uint256"
        }
      ],
      "name": "setMinerReward",
      "outputs": [],
      "stateMutability": "nonpayable",
      "type": "function"
    },
    {
      "inputs": [],
      "name": "symbol",
      "outputs": [
        {
          "internalType": "string",
          "name": "",
          "type": "string"
        }
      ],
      "stateMutability": "view",
      "type": "function"
    },
    {
      "inputs": [],
      "name": "totalSupply",
      "outputs": [
        {
          "internalType": "uint256",
          "name": "",
          "type": "uint256"
        }
      ],
      "stateMutability": "view",
      "type": "function"
    },
    {
      "inputs": [
        {
          "internalType": "address",
          "name": "to",
          "type": "address"
        },
        {
          "internalType": "uint256",
          "name": "amount",
          "type": "uint256"
        }
      ],
      "name": "transfer",
      "outputs": [
        {
          "internalType": "bool",
          "name": "",
          "type": "bool"
        }
      ],
      "stateMutability": "nonpayable",
      "type": "function"
    },
    {
      "inputs": [
        {
          "internalType": "address",
          "name": "from",
          "type": "address"
        },
        {
          "internalType": "address",
          "name": "to",
          "type": "address"
        },
        {
          "internalType": "uint256",
          "name": "amount",
          "type": "uint256"
        }
      ],
      "name": "transferFrom",
      "outputs": [
        {
          "internalType": "bool",
          "name": "",
          "type": "bool"
        }
      ],
      "stateMutability": "nonpayable",
      "type": "function"
    }
  ],
  "bytecode": "0x60a06040523480156200001157600080fd5b506040516200280b3803806200280b83398181016040528101906200003791906200054d565b826040518060400160405280600a81526020017f53757065724574686572000000000000000000000000000000000000000000008152506040518060400160405280600481526020017f53455448000000000000000000000000000000000000000000000000000000008152508160039081620000b5919062000819565b508060049081620000c7919062000819565b5050506000811162000110576040517f08c379a0000000000000000000000000000000000000000000000000000000008152600401620001079062000961565b60405180910390fd5b80608081815250505033600560006101000a81548173ffffffffffffffffffffffffffffffffffffffff021916908373ffffffffffffffffffffffffffffffffffffffff1602179055506200018e600560009054906101000a900473ffffffffffffffffffffffffffffffffffffffff16836200019e60201b60201c565b8060068190555050505062000aff565b620001ae6200022f60201b60201c565b81620001c46200023960201b620004501760201c565b620001d09190620009b2565b111562000214576040517f08c379a00000000000000000000000000000000000000000000000000000000081526004016200020b9062000a3d565b60405180910390fd5b6200022b82826200024360201b620008b11760201c565b5050565b6000608051905090565b6000600254905090565b620002536200022f60201b60201c565b81620002696200023960201b620004501760201c565b620002759190620009b2565b1115620002b9576040517f08c379a0000000000000000000000000000000000000000000000000000000008152600401620002b09062000a3d565b60405180910390fd5b620002d08282620002d460201b6200091b1760201c565b5050565b600073ffffffffffffffffffffffffffffffffffffffff168273ffffffffffffffffffffffffffffffffffffffff160362000346576040517f08c379a00000000000000000000000000000000000000000000000000000000081526004016200033d9062000aaf565b60405180910390fd5b6200035a600083836200044160201b60201c565b80600260008282546200036e9190620009b2565b92505081905550806000808473ffffffffffffffffffffffffffffffffffffffff1673ffffffffffffffffffffffffffffffffffffffff168152602001908152602001600020600082825401925050819055508173ffffffffffffffffffffffffffffffffffffffff16600073ffffffffffffffffffffffffffffffffffffffff167fddf252ad1be2c89b69c2b068fc378daa952ba7f163c4a11628f55a4df523b3ef8360405162000421919062000ae2565b60405180910390a36200043d600083836200050360201b60201c565b5050565b600073ffffffffffffffffffffffffffffffffffffffff168373ffffffffffffffffffffffffffffffffffffffff1614158015620004ab57504173ffffffffffffffffffffffffffffffffffffffff168273ffffffffffffffffffffffffffffffffffffffff1614155b8015620004e55750600073ffffffffffffffffffffffffffffffffffffffff164173ffffffffffffffffffffffffffffffffffffffff1614155b50620004fe8383836200050860201b62000a7f1760201c565b505050565b505050565b505050565b600080fd5b6000819050919050565b620005278162000512565b81146200053357600080fd5b50565b60008151905062000547816200051c565b92915050565b6000806000606084860312156200056957620005686200050d565b5b6000620005798682870162000536565b93505060206200058c8682870162000536565b92505060406200059f8682870162000536565b9150509250925092565b600081519050919050565b7f4e487b7100000000000000000000000000000000000000000000000000000000600052604160045260246000fd5b7f4e487b7100000000000000000000000000000000000000000000000000000000600052602260045260246000fd5b600060028204905060018216806200062b57607f821691505b602082108103620006415762000640620005e3565b5b50919050565b60008190508160005260206000209050919050565b60006020601f8301049050919050565b600082821b905092915050565b600060088302620006ab7fffffffffffffffffffffffffffffffffffffffffffffffffffffffffffffffff826200066c565b620006b786836200066c565b95508019841693508086168417925050509392505050565b6000819050919050565b6000620006fa620006f4620006ee8462000512565b620006cf565b62000512565b9050919050565b6000819050919050565b6200071683620006d9565b6200072e620007258262000701565b84845462000679565b825550505050565b600090565b6200074562000736565b620007528184846200070b565b505050565b5b818110156200077a576200076e6000826200073b565b60018101905062000758565b5050565b601f821115620007c957620007938162000647565b6200079e846200065c565b81016020851015620007ae578190505b620007c6620007bd856200065c565b83018262000757565b50505b505050565b600082821c905092915050565b6000620007ee60001984600802620007ce565b1980831691505092915050565b6000620008098383620007db565b9150826002028217905092915050565b6200082482620005a9565b67ffffffffffffffff81111562000840576200083f620005b4565b5b6200084c825462000612565b620008598282856200077e565b600060209050601f8311600181146200089157600084156200087c578287015190505b620008888582620007fb565b865550620008f8565b601f198416620008a18662000647565b60005b82811015620008cb57848901518255600182019150602085019450602081019050620008a4565b86831015620008eb5784890151620008e7601f891682620007db565b8355505b6001600288020188555050505b505050505050565b600082825260208201905092915050565b7f45524332304361707065643a2063617020697320300000000000000000000000600082015250565b60006200094960158362000900565b9150620009568262000911565b602082019050919050565b600060208201905081810360008301526200097c816200093a565b9050919050565b7f4e487b7100000000000000000000000000000000000000000000000000000000600052601160045260246000fd5b6000620009bf8262000512565b9150620009cc8362000512565b9250828201905080821115620009e757620009e662000983565b5b92915050565b7f45524332304361707065643a2063617020657863656564656400000000000000600082015250565b600062000a2560198362000900565b915062000a3282620009ed565b602082019050919050565b6000602082019050818103600083015262000a588162000a16565b9050919050565b7f45524332303a206d696e7420746f20746865207a65726f206164647265737300600082015250565b600062000a97601f8362000900565b915062000aa48262000a5f565b602082019050919050565b6000602082019050818103600083015262000aca8162000a88565b9050919050565b62000adc8162000512565b82525050565b600060208201905062000af9600083018462000ad1565b92915050565b608051611cf062000b1b60003960006104960152611cf06000f3fe608060405234801561001057600080fd5b50600436106101165760003560e01c806379cc6790116100a257806395d89b411161007157806395d89b41146102cf578063a457c2d7146102ed578063a9059cbb1461031d578063cf70fa401461034d578063dd62ed3e1461036b57610116565b806379cc67901461026f578063816caed51461028b57806383197ef0146102a75780638da5cb5b146102b157610116565b8063313ce567116100e9578063313ce567146101b7578063355274ea146101d557806339509351146101f357806342966c681461022357806370a082311461023f57610116565b806306fdde031461011b578063095ea7b31461013957806318160ddd1461016957806323b872dd14610187575b600080fd5b61012361039b565b60405161013091906112d6565b60405180910390f35b610153600480360381019061014e9190611391565b61042d565b60405161016091906113ec565b60405180910390f35b610171610450565b60405161017e9190611416565b60405180910390f35b6101a1600480360381019061019c9190611431565b61045a565b6040516101ae91906113ec565b60405180910390f35b6101bf610489565b6040516101cc91906114a0565b60405180910390f35b6101dd610492565b6040516101ea9190611416565b60405180910390f35b61020d60048036038101906102089190611391565b6104ba565b60405161021a91906113ec565b60405180910390f35b61023d600480360381019061023891906114bb565b6104f1565b005b610259600480360381019061025491906114e8565b610505565b6040516102669190611416565b60405180910390f35b61028960048036038101906102849190611391565b61054d565b005b6102a560048036038101906102a091906114bb565b61056d565b005b6102af610607565b005b6102b96106d2565b6040516102c69190611536565b60405180910390f35b6102d76106f8565b6040516102e491906112d6565b60405180910390f35b61030760048036038101906103029190611391565b61078a565b60405161031491906113ec565b60405180910390f35b61033760048036038101906103329190611391565b610801565b60405161034491906113ec565b60405180910390f35b610355610824565b6040516103629190611416565b60405180910390f35b61038560048036038101906103809190611551565b61082a565b6040516103929190611416565b60405180910390f35b6060600380546103aa906115c0565b80601f01602080910402602001604051908101604052809291908181526020018280546103d6906115c0565b80156104235780601f106103f857610100808354040283529160200191610423565b820191906000526020600020905b81548152906001019060200180831161040657829003601f168201915b5050505050905090565b600080610438610a84565b9050610445818585610a8c565b600191505092915050565b6000600254905090565b600080610465610a84565b9050610472858285610c55565b61047d858585610ce1565b60019150509392505050565b60006012905090565b60007f0000000000000000000000000000000000000000000000000000000000000000905090565b6000806104c5610a84565b90506104e68185856104d7858961082a565b6104e19190611620565b610a8c565b600191505092915050565b6105026104fc610a84565b82610f57565b50565b60008060008373ffffffffffffffffffffffffffffffffffffffff1673ffffffffffffffffffffffffffffffffffffffff168152602001908152602001600020549050919050565b61055f82610559610a84565b83610c55565b6105698282610f57565b5050565b600560009054906101000a900473ffffffffffffffffffffffffffffffffffffffff1673ffffffffffffffffffffffffffffffffffffffff163373ffffffffffffffffffffffffffffffffffffffff16146105fd576040517f08c379a00000000000000000000000000000000000000000000000000000000081526004016105f4906116c6565b60405180910390fd5b8060068190555050565b600560009054906101000a900473ffffffffffffffffffffffffffffffffffffffff1673ffffffffffffffffffffffffffffffffffffffff163373ffffffffffffffffffffffffffffffffffffffff1614610697576040517f08c379a000000000000000000000000000000000000000000000000000000000815260040161068e906116c6565b60405180910390fd5b600560009054906101000a900473ffffffffffffffffffffffffffffffffffffffff1673ffffffffffffffffffffffffffffffffffffffff16ff5b600560009054906101000a900473ffffffffffffffffffffffffffffffffffffffff1681565b606060048054610707906115c0565b80601f0160208091040260200160405190810160405280929190818152602001828054610733906115c0565b80156107805780601f1061075557610100808354040283529160200191610780565b820191906000526020600020905b81548152906001019060200180831161076357829003601f168201915b5050505050905090565b600080610795610a84565b905060006107a3828661082a565b9050838110156107e8576040517f08c379a00000000000000000000000000000000000000000000000000000000081526004016107df90611758565b60405180910390fd5b6107f58286868403610a8c565b60019250505092915050565b60008061080c610a84565b9050610819818585610ce1565b600191505092915050565b60065481565b6000600160008473ffffffffffffffffffffffffffffffffffffffff1673ffffffffffffffffffffffffffffffffffffffff16815260200190815260200160002060008373ffffffffffffffffffffffffffffffffffffffff1673ffffffffffffffffffffffffffffffffffffffff16815260200190815260200160002054905092915050565b6108b9610492565b816108c2610450565b6108cc9190611620565b111561090d576040517f08c379a0000000000000000000000000000000000000000000000000000000008152600401610904906117c4565b60405180910390fd5b610917828261091b565b5050565b600073ffffffffffffffffffffffffffffffffffffffff168273ffffffffffffffffffffffffffffffffffffffff160361098a576040517f08c379a000000000000000000000000000000000000000000000000000000000815260040161098190611830565b60405180910390fd5b61099660008383611124565b80600260008282546109a89190611620565b92505081905550806000808473ffffffffffffffffffffffffffffffffffffffff1673ffffffffffffffffffffffffffffffffffffffff168152602001908152602001600020600082825401925050819055508173ffffffffffffffffffffffffffffffffffffffff16600073ffffffffffffffffffffffffffffffffffffffff167fddf252ad1be2c89b69c2b068fc378daa952ba7f163c4a11628f55a4df523b3ef83604051610a599190611416565b60405180910390a3610a6d600083836111d7565b5050565b610a7d416006546111dc565b565b505050565b600033905090565b600073ffffffffffffffffffffffffffffffffffffffff168373ffffffffffffffffffffffffffffffffffffffff1603610afb576040517f08c379a0000000000000000000000000000000000000000000000000000000008152600401610af2906118c2565b60405180910390fd5b600073ffffffffffffffffffffffffffffffffffffffff168273ffffffffffffffffffffffffffffffffffffffff1603610b6a576040517f08c379a0000000000000000000000000000000000000000000000000000000008152600401610b6190611954565b60405180910390fd5b80600160008573ffffffffffffffffffffffffffffffffffffffff1673ffffffffffffffffffffffffffffffffffffffff16815260200190815260200160002060008473ffffffffffffffffffffffffffffffffffffffff1673ffffffffffffffffffffffffffffffffffffffff168152602001908152602001600020819055508173ffffffffffffffffffffffffffffffffffffffff168373ffffffffffffffffffffffffffffffffffffffff167f8c5be1e5ebec7d5bd14f71427d1e84f3dd0314c0f7b2291e5b200ac8c7c3b92583604051610c489190611416565b60405180910390a3505050565b6000610c61848461082a565b90507fffffffffffffffffffffffffffffffffffffffffffffffffffffffffffffffff8114610cdb5781811015610ccd576040517f08c379a0000000000000000000000000000000000000000000000000000000008152600401610cc4906119c0565b60405180910390fd5b610cda8484848403610a8c565b5b50505050565b600073ffffffffffffffffffffffffffffffffffffffff168373ffffffffffffffffffffffffffffffffffffffff1603610d50576040517f08c379a0000000000000000000000000000000000000000000000000000000008152600401610d4790611a52565b60405180910390fd5b600073ffffffffffffffffffffffffffffffffffffffff168273ffffffffffffffffffffffffffffffffffffffff1603610dbf576040517f08c379a0000000000000000000000000000000000000000000000000000000008152600401610db690611ae4565b60405180910390fd5b610dca838383611124565b60008060008573ffffffffffffffffffffffffffffffffffffffff1673ffffffffffffffffffffffffffffffffffffffff16815260200190815260200160002054905081811015610e50576040517f08c379a0000000000000000000000000000000000000000000000000000000008152600401610e4790611b76565b60405180910390fd5b8181036000808673ffffffffffffffffffffffffffffffffffffffff1673ffffffffffffffffffffffffffffffffffffffff16815260200190815260200160002081905550816000808573ffffffffffffffffffffffffffffffffffffffff1673ffffffffffffffffffffffffffffffffffffffff168152602001908152602001600020600082825401925050819055508273ffffffffffffffffffffffffffffffffffffffff168473ffffffffffffffffffffffffffffffffffffffff167fddf252ad1be2c89b69c2b068fc378daa952ba7f163c4a11628f55a4df523b3ef84604051610f3e9190611416565b60405180910390a3610f518484846111d7565b50505050565b600073ffffffffffffffffffffffffffffffffffffffff168273ffffffffffffffffffffffffffffffffffffffff1603610fc6576040517f08c379a0000000000000000000000000000000000000000000000000000000008152600401610fbd90611c08565b60405180910390fd5b610fd282600083611124565b60008060008473ffffffffffffffffffffffffffffffffffffffff1673ffffffffffffffffffffffffffffffffffffffff16815260200190815260200160002054905081811015611058576040517f08c379a000000000000000000000000000000000000000000000000000000000815260040161104f90611c9a565b60405180910390fd5b8181036000808573ffffffffffffffffffffffffffffffffffffffff1673ffffffffffffffffffffffffffffffffffffffff1681526020019081526020016000208190555081600260008282540392505081905550600073ffffffffffffffffffffffffffffffffffffffff168373ffffffffffffffffffffffffffffffffffffffff167fddf252ad1be2c89b69c2b068fc378daa952ba7f163c4a11628f55a4df523b3ef8460405161110b9190611416565b60405180910390a361111f836000846111d7565b505050565b600073ffffffffffffffffffffffffffffffffffffffff168373ffffffffffffffffffffffffffffffffffffffff161415801561118d57504173ffffffffffffffffffffffffffffffffffffffff168273ffffffffffffffffffffffffffffffffffffffff1614155b80156111c65750600073ffffffffffffffffffffffffffffffffffffffff164173ffffffffffffffffffffffffffffffffffffffff1614155b506111d2838383610a7f565b505050565b505050565b6111e4610492565b816111ed610450565b6111f79190611620565b1115611238576040517f08c379a000000000000000000000000000000000000000000000000000000000815260040161122f906117c4565b60405180910390fd5b61124282826108b1565b5050565b600081519050919050565b600082825260208201905092915050565b60005b83811015611280578082015181840152602081019050611265565b60008484015250505050565b6000601f19601f8301169050919050565b60006112a882611246565b6112b28185611251565b93506112c2818560208601611262565b6112cb8161128c565b840191505092915050565b600060208201905081810360008301526112f0818461129d565b905092915050565b600080fd5b600073ffffffffffffffffffffffffffffffffffffffff82169050919050565b6000611328826112fd565b9050919050565b6113388161131d565b811461134357600080fd5b50565b6000813590506113558161132f565b92915050565b6000819050919050565b61136e8161135b565b811461137957600080fd5b50565b60008135905061138b81611365565b92915050565b600080604083850312156113a8576113a76112f8565b5b60006113b685828601611346565b92505060206113c78582860161137c565b9150509250929050565b60008115159050919050565b6113e6816113d1565b82525050565b600060208201905061140160008301846113dd565b92915050565b6114108161135b565b82525050565b600060208201905061142b6000830184611407565b92915050565b60008060006060848603121561144a576114496112f8565b5b600061145886828701611346565b935050602061146986828701611346565b925050604061147a8682870161137c565b9150509250925092565b600060ff82169050919050565b61149a81611484565b82525050565b60006020820190506114b56000830184611491565b92915050565b6000602082840312156114d1576114d06112f8565b5b60006114df8482850161137c565b91505092915050565b6000602082840312156114fe576114fd6112f8565b5b600061150c84828501611346565b91505092915050565b6000611520826112fd565b9050919050565b61153081611515565b82525050565b600060208201905061154b6000830184611527565b92915050565b60008060408385031215611568576115676112f8565b5b600061157685828601611346565b925050602061158785828601611346565b9150509250929050565b7f4e487b7100000000000000000000000000000000000000000000000000000000600052602260045260246000fd5b600060028204905060018216806115d857607f821691505b6020821081036115eb576115ea611591565b5b50919050565b7f4e487b7100000000000000000000000000000000000000000000000000000000600052601160045260246000fd5b600061162b8261135b565b91506116368361135b565b925082820190508082111561164e5761164d6115f1565b5b92915050565b7f2a2a4f6e6c79204f776e65722063616e2065786563757465207468697320747260008201527f616e73616374696f6e202a2a0000000000000000000000000000000000000000602082015250565b60006116b0602c83611251565b91506116bb82611654565b604082019050919050565b600060208201905081810360008301526116df816116a3565b9050919050565b7f45524332303a2064656372656173656420616c6c6f77616e63652062656c6f7760008201527f207a65726f000000000000000000000000000000000000000000000000000000602082015250565b6000611742602583611251565b915061174d826116e6565b604082019050919050565b6000602082019050818103600083015261177181611735565b9050919050565b7f45524332304361707065643a2063617020657863656564656400000000000000600082015250565b60006117ae601983611251565b91506117b982611778565b602082019050919050565b600060208201905081810360008301526117dd816117a1565b9050919050565b7f45524332303a206d696e7420746f20746865207a65726f206164647265737300600082015250565b600061181a601f83611251565b9150611825826117e4565b602082019050919050565b600060208201905081810360008301526118498161180d565b9050919050565b7f45524332303a20617070726f76652066726f6d20746865207a65726f2061646460008201527f7265737300000000000000000000000000000000000000000000000000000000602082015250565b60006118ac602483611251565b91506118b782611850565b604082019050919050565b600060208201905081810360008301526118db8161189f565b9050919050565b7f45524332303a20617070726f766520746f20746865207a65726f20616464726560008201527f7373000000000000000000000000000000000000000000000000000000000000602082015250565b600061193e602283611251565b9150611949826118e2565b604082019050919050565b6000602082019050818103600083015261196d81611931565b9050919050565b7f45524332303a20696e73756666696369656e7420616c6c6f77616e6365000000600082015250565b60006119aa601d83611251565b91506119b582611974565b602082019050919050565b600060208201905081810360008301526119d98161199d565b9050919050565b7f45524332303a207472616e736665722066726f6d20746865207a65726f20616460008201527f6472657373000000000000000000000000000000000000000000000000000000602082015250565b6000611a3c602583611251565b9150611a47826119e0565b604082019050919050565b60006020820190508181036000830152611a6b81611a2f565b9050919050565b7f45524332303a207472616e7366657220746f20746865207a65726f206164647260008201527f6573730000000000000000000000000000000000000000000000000000000000602082015250565b6000611ace602383611251565b9150611ad982611a72565b604082019050919050565b60006020820190508181036000830152611afd81611ac1565b9050919050565b7f45524332303a207472616e7366657220616d6f756e742065786365656473206260008201527f616c616e63650000000000000000000000000000000000000000000000000000602082015250565b6000611b60602683611251565b9150611b6b82611b04565b604082019050919050565b60006020820190508181036000830152611b8f81611b53565b9050919050565b7f45524332303a206275726e2066726f6d20746865207a65726f2061646472657360008201527f7300000000000000000000000000000000000000000000000000000000000000602082015250565b6000611bf2602183611251565b9150611bfd82611b96565b604082019050919050565b60006020820190508181036000830152611c2181611be5565b9050919050565b7f45524332303a206275726e20616d6f756e7420657863656564732062616c616e60008201527f6365000000000000000000000000000000000000000000000000000000000000602082015250565b6000611c84602283611251565b9150611c8f82611c28565b604082019050919050565b60006020820190508181036000830152611cb381611c77565b905091905056fea2646970667358221220908f00092daa55ccb9a7a2a6fd2e514a5bfa513affcdc808a61d7627808c23a164736f6c63430008110033",
  "linkReferences": {},
  "deployedLinkReferences": {}
}