{
  "_format": "hh-sol-artifact-1",
  "contractName": "SuperEther",
  "sourceName": "contracts/SuperEther.sol",
  "abi": [
    {
      "inputs": [],
      "stateMutability": "nonpayable",
      "type": "constructor"
    },
    {
      "inputs": [
        {
          "internalType": "address",
          "name": "",
          "type": "address"
        }
      ],
      "name": "balances",
      "outputs": [
        {
          "internalType": "uint256",
          "name": "",
          "type": "uint256"
        }
      ],
      "stateMutability": "view",
      "type": "function"
    },
    {
      "inputs": [
        {
          "internalType": "address",
          "name": "account",
          "type": "address"
        }
      ],
      "name": "getBalance",
      "outputs": [
        {
          "internalType": "uint256",
          "name": "",
          "type": "uint256"
        }
      ],
      "stateMutability": "view",
      "type": "function"
    },
    {
      "inputs": [],
      "name": "name",
      "outputs": [
        {
          "internalType": "string",
          "name": "",
          "type": "string"
        }
      ],
      "stateMutability": "view",
      "type": "function"
    },
    {
      "inputs": [],
      "name": "owner",
      "outputs": [
        {
          "internalType": "address",
          "name": "",
          "type": "address"
        }
      ],
      "stateMutability": "view",
      "type": "function"
    },
    {
      "inputs": [],
      "name": "symbol",
      "outputs": [
        {
          "internalType": "string",
          "name": "",
          "type": "string"
        }
      ],
      "stateMutability": "view",
      "type": "function"
    },
    {
      "inputs": [],
      "name": "totalSupply",
      "outputs": [
        {
          "internalType": "uint256",
          "name": "",
          "type": "uint256"
        }
      ],
      "stateMutability": "view",
      "type": "function"
    },
    {
      "inputs": [
        {
          "internalType": "address",
          "name": "to",
          "type": "address"
        },
        {
          "internalType": "uint256",
          "name": "amount",
          "type": "uint256"
        }
      ],
      "name": "transfer",
      "outputs": [],
      "stateMutability": "payable",
      "type": "function"
    }
  ],
  "bytecode": "0x60806040526040518060400160405280600a81526020017f5375706572457468657200000000000000000000000000000000000000000000815250600090816200004a9190620003ad565b506040518060400160405280600581526020017f205345544800000000000000000000000000000000000000000000000000000081525060019081620000919190620003ad565b506103e8600255348015620000a557600080fd5b50600254600460003373ffffffffffffffffffffffffffffffffffffffff1673ffffffffffffffffffffffffffffffffffffffff1681526020019081526020016000208190555033600360006101000a81548173ffffffffffffffffffffffffffffffffffffffff021916908373ffffffffffffffffffffffffffffffffffffffff16021790555062000494565b600081519050919050565b7f4e487b7100000000000000000000000000000000000000000000000000000000600052604160045260246000fd5b7f4e487b7100000000000000000000000000000000000000000000000000000000600052602260045260246000fd5b60006002820490506001821680620001b557607f821691505b602082108103620001cb57620001ca6200016d565b5b50919050565b60008190508160005260206000209050919050565b60006020601f8301049050919050565b600082821b905092915050565b600060088302620002357fffffffffffffffffffffffffffffffffffffffffffffffffffffffffffffffff82620001f6565b620002418683620001f6565b95508019841693508086168417925050509392505050565b6000819050919050565b6000819050919050565b60006200028e62000288620002828462000259565b62000263565b62000259565b9050919050565b6000819050919050565b620002aa836200026d565b620002c2620002b98262000295565b84845462000203565b825550505050565b600090565b620002d9620002ca565b620002e68184846200029f565b505050565b5b818110156200030e5762000302600082620002cf565b600181019050620002ec565b5050565b601f8211156200035d576200032781620001d1565b6200033284620001e6565b8101602085101562000342578190505b6200035a6200035185620001e6565b830182620002eb565b50505b505050565b600082821c905092915050565b6000620003826000198460080262000362565b1980831691505092915050565b60006200039d83836200036f565b9150826002028217905092915050565b620003b88262000133565b67ffffffffffffffff811115620003d457620003d36200013e565b5b620003e082546200019c565b620003ed82828562000312565b600060209050601f83116001811462000425576000841562000410578287015190505b6200041c85826200038f565b8655506200048c565b601f1984166200043586620001d1565b60005b828110156200045f5784890151825560018201915060208501945060208101905062000438565b868310156200047f57848901516200047b601f8916826200036f565b8355505b6001600288020188555050505b505050505050565b610a9280620004a46000396000f3fe6080604052600436106100705760003560e01c80638da5cb5b1161004e5780638da5cb5b1461010857806395d89b4114610133578063a9059cbb1461015e578063f8b2cb4f1461017a57610070565b806306fdde031461007557806318160ddd146100a057806327e235e3146100cb575b600080fd5b34801561008157600080fd5b5061008a6101b7565b60405161009791906106e8565b60405180910390f35b3480156100ac57600080fd5b506100b5610245565b6040516100c29190610723565b60405180910390f35b3480156100d757600080fd5b506100f260048036038101906100ed91906107a1565b61024b565b6040516100ff9190610723565b60405180910390f35b34801561011457600080fd5b5061011d610263565b60405161012a91906107dd565b60405180910390f35b34801561013f57600080fd5b50610148610289565b60405161015591906106e8565b60405180910390f35b61017860048036038101906101739190610824565b610317565b005b34801561018657600080fd5b506101a1600480360381019061019c91906107a1565b6104ab565b6040516101ae9190610723565b60405180910390f35b600080546101c490610893565b80601f01602080910402602001604051908101604052809291908181526020018280546101f090610893565b801561023d5780601f106102125761010080835404028352916020019161023d565b820191906000526020600020905b81548152906001019060200180831161022057829003601f168201915b505050505081565b60025481565b60046020528060005260406000206000915090505481565b600360009054906101000a900473ffffffffffffffffffffffffffffffffffffffff1681565b6001805461029690610893565b80601f01602080910402602001604051908101604052809291908181526020018280546102c290610893565b801561030f5780601f106102e45761010080835404028352916020019161030f565b820191906000526020600020905b8154815290600101906020018083116102f257829003601f168201915b505050505081565b6103566040518060400160405280601981526020017f2a2a53656e6465722061646472657373206973202573202a2a00000000000000815250336104f4565b610379604051806060016040528060278152602001610a36602791398284610590565b80600460003373ffffffffffffffffffffffffffffffffffffffff1673ffffffffffffffffffffffffffffffffffffffff1681526020019081526020016000205410156103fb576040517f08c379a00000000000000000000000000000000000000000000000000000000081526004016103f290610910565b60405180910390fd5b80600460003373ffffffffffffffffffffffffffffffffffffffff1673ffffffffffffffffffffffffffffffffffffffff168152602001908152602001600020600082825461044a919061095f565b9250508190555080600460008473ffffffffffffffffffffffffffffffffffffffff1673ffffffffffffffffffffffffffffffffffffffff16815260200190815260200160002060008282546104a09190610993565b925050819055505050565b6000600460008373ffffffffffffffffffffffffffffffffffffffff1673ffffffffffffffffffffffffffffffffffffffff168152602001908152602001600020549050919050565b61058c828260405160240161050a9291906109c7565b6040516020818303038152906040527f319af333000000000000000000000000000000000000000000000000000000007bffffffffffffffffffffffffffffffffffffffffffffffffffffffff19166020820180517bffffffffffffffffffffffffffffffffffffffffffffffffffffffff838183161783525050505061062f565b5050565b61062a8383836040516024016105a8939291906109f7565b6040516020818303038152906040527f1c7ec448000000000000000000000000000000000000000000000000000000007bffffffffffffffffffffffffffffffffffffffffffffffffffffffff19166020820180517bffffffffffffffffffffffffffffffffffffffffffffffffffffffff838183161783525050505061062f565b505050565b60008151905060006a636f6e736f6c652e6c6f679050602083016000808483855afa5050505050565b600081519050919050565b600082825260208201905092915050565b60005b83811015610692578082015181840152602081019050610677565b60008484015250505050565b6000601f19601f8301169050919050565b60006106ba82610658565b6106c48185610663565b93506106d4818560208601610674565b6106dd8161069e565b840191505092915050565b6000602082019050818103600083015261070281846106af565b905092915050565b6000819050919050565b61071d8161070a565b82525050565b60006020820190506107386000830184610714565b92915050565b600080fd5b600073ffffffffffffffffffffffffffffffffffffffff82169050919050565b600061076e82610743565b9050919050565b61077e81610763565b811461078957600080fd5b50565b60008135905061079b81610775565b92915050565b6000602082840312156107b7576107b661073e565b5b60006107c58482850161078c565b91505092915050565b6107d781610763565b82525050565b60006020820190506107f260008301846107ce565b92915050565b6108018161070a565b811461080c57600080fd5b50565b60008135905061081e816107f8565b92915050565b6000806040838503121561083b5761083a61073e565b5b60006108498582860161078c565b925050602061085a8582860161080f565b9150509250929050565b7f4e487b7100000000000000000000000000000000000000000000000000000000600052602260045260246000fd5b600060028204905060018216806108ab57607f821691505b6020821081036108be576108bd610864565b5b50919050565b7f2a2a2a4e6f7420656e6f75676820546f6b656e732a2a2a000000000000000000600082015250565b60006108fa601783610663565b9150610905826108c4565b602082019050919050565b60006020820190508181036000830152610929816108ed565b9050919050565b7f4e487b7100000000000000000000000000000000000000000000000000000000600052601160045260246000fd5b600061096a8261070a565b91506109758361070a565b925082820390508181111561098d5761098c610930565b5b92915050565b600061099e8261070a565b91506109a98361070a565b92508282019050808211156109c1576109c0610930565b5b92915050565b600060408201905081810360008301526109e181856106af565b90506109f060208301846107ce565b9392505050565b60006060820190508181036000830152610a1181866106af565b9050610a206020830185610714565b610a2d60408301846107ce565b94935050505056fe2a53656e64696e6720257320746f6b656e7320746f207468652061646472657373202573202a2aa26469706673582212204e209df9b114cced6cef9a93639f546f61569e6016caf9dfbd63cb6640d86da064736f6c63430008110033",
  "linkReferences": {},
  "deployedLinkReferences": {}
}