{
  "_format": "hh-sol-artifact-1",
  "contractName": "SmartDoge",
  "sourceName": "contracts/SmartDoge.sol",
  "abi": [
    {
      "inputs": [],
      "stateMutability": "nonpayable",
      "type": "constructor"
    },
    {
      "anonymous": false,
      "inputs": [
        {
          "indexed": true,
          "internalType": "address",
          "name": "owner",
          "type": "address"
        },
        {
          "indexed": true,
          "internalType": "address",
          "name": "approved",
          "type": "address"
        },
        {
          "indexed": true,
          "internalType": "uint256",
          "name": "tokenId",
          "type": "uint256"
        }
      ],
      "name": "Approval",
      "type": "event"
    },
    {
      "anonymous": false,
      "inputs": [
        {
          "indexed": true,
          "internalType": "address",
          "name": "owner",
          "type": "address"
        },
        {
          "indexed": true,
          "internalType": "address",
          "name": "operator",
          "type": "address"
        },
        {
          "indexed": false,
          "internalType": "bool",
          "name": "approved",
          "type": "bool"
        }
      ],
      "name": "ApprovalForAll",
      "type": "event"
    },
    {
      "anonymous": false,
      "inputs": [
        {
          "indexed": true,
          "internalType": "address",
          "name": "previousOwner",
          "type": "address"
        },
        {
          "indexed": true,
          "internalType": "address",
          "name": "newOwner",
          "type": "address"
        }
      ],
      "name": "OwnershipTransferred",
      "type": "event"
    },
    {
      "anonymous": false,
      "inputs": [
        {
          "indexed": true,
          "internalType": "address",
          "name": "from",
          "type": "address"
        },
        {
          "indexed": true,
          "internalType": "address",
          "name": "to",
          "type": "address"
        },
        {
          "indexed": true,
          "internalType": "uint256",
          "name": "tokenId",
          "type": "uint256"
        }
      ],
      "name": "Transfer",
      "type": "event"
    },
    {
      "inputs": [
        {
          "internalType": "address",
          "name": "to",
          "type": "address"
        },
        {
          "internalType": "uint256",
          "name": "tokenId",
          "type": "uint256"
        }
      ],
      "name": "approve",
      "outputs": [],
      "stateMutability": "nonpayable",
      "type": "function"
    },
    {
      "inputs": [
        {
          "internalType": "address",
          "name": "owner",
          "type": "address"
        }
      ],
      "name": "balanceOf",
      "outputs": [
        {
          "internalType": "uint256",
          "name": "",
          "type": "uint256"
        }
      ],
      "stateMutability": "view",
      "type": "function"
    },
    {
      "inputs": [
        {
          "internalType": "uint256",
          "name": "tokenId",
          "type": "uint256"
        }
      ],
      "name": "burn",
      "outputs": [],
      "stateMutability": "nonpayable",
      "type": "function"
    },
    {
      "inputs": [
        {
          "internalType": "uint256",
          "name": "tokenId",
          "type": "uint256"
        }
      ],
      "name": "getApproved",
      "outputs": [
        {
          "internalType": "address",
          "name": "",
          "type": "address"
        }
      ],
      "stateMutability": "view",
      "type": "function"
    },
    {
      "inputs": [
        {
          "internalType": "address",
          "name": "owner",
          "type": "address"
        },
        {
          "internalType": "address",
          "name": "operator",
          "type": "address"
        }
      ],
      "name": "isApprovedForAll",
      "outputs": [
        {
          "internalType": "bool",
          "name": "",
          "type": "bool"
        }
      ],
      "stateMutability": "view",
      "type": "function"
    },
    {
      "inputs": [],
      "name": "name",
      "outputs": [
        {
          "internalType": "string",
          "name": "",
          "type": "string"
        }
      ],
      "stateMutability": "view",
      "type": "function"
    },
    {
      "inputs": [],
      "name": "owner",
      "outputs": [
        {
          "internalType": "address",
          "name": "",
          "type": "address"
        }
      ],
      "stateMutability": "view",
      "type": "function"
    },
    {
      "inputs": [
        {
          "internalType": "uint256",
          "name": "tokenId",
          "type": "uint256"
        }
      ],
      "name": "ownerOf",
      "outputs": [
        {
          "internalType": "address",
          "name": "",
          "type": "address"
        }
      ],
      "stateMutability": "view",
      "type": "function"
    },
    {
      "inputs": [],
      "name": "renounceOwnership",
      "outputs": [],
      "stateMutability": "nonpayable",
      "type": "function"
    },
    {
      "inputs": [
        {
          "internalType": "address",
          "name": "to",
          "type": "address"
        },
        {
          "internalType": "string",
          "name": "uri",
          "type": "string"
        }
      ],
      "name": "safeMint",
      "outputs": [],
      "stateMutability": "nonpayable",
      "type": "function"
    },
    {
      "inputs": [
        {
          "internalType": "address",
          "name": "from",
          "type": "address"
        },
        {
          "internalType": "address",
          "name": "to",
          "type": "address"
        },
        {
          "internalType": "uint256",
          "name": "tokenId",
          "type": "uint256"
        }
      ],
      "name": "safeTransferFrom",
      "outputs": [],
      "stateMutability": "nonpayable",
      "type": "function"
    },
    {
      "inputs": [
        {
          "internalType": "address",
          "name": "from",
          "type": "address"
        },
        {
          "internalType": "address",
          "name": "to",
          "type": "address"
        },
        {
          "internalType": "uint256",
          "name": "tokenId",
          "type": "uint256"
        },
        {
          "internalType": "bytes",
          "name": "data",
          "type": "bytes"
        }
      ],
      "name": "safeTransferFrom",
      "outputs": [],
      "stateMutability": "nonpayable",
      "type": "function"
    },
    {
      "inputs": [
        {
          "internalType": "address",
          "name": "operator",
          "type": "address"
        },
        {
          "internalType": "bool",
          "name": "approved",
          "type": "bool"
        }
      ],
      "name": "setApprovalForAll",
      "outputs": [],
      "stateMutability": "nonpayable",
      "type": "function"
    },
    {
      "inputs": [
        {
          "internalType": "bytes4",
          "name": "interfaceId",
          "type": "bytes4"
        }
      ],
      "name": "supportsInterface",
      "outputs": [
        {
          "internalType": "bool",
          "name": "",
          "type": "bool"
        }
      ],
      "stateMutability": "view",
      "type": "function"
    },
    {
      "inputs": [],
      "name": "symbol",
      "outputs": [
        {
          "internalType": "string",
          "name": "",
          "type": "string"
        }
      ],
      "stateMutability": "view",
      "type": "function"
    },
    {
      "inputs": [
        {
          "internalType": "uint256",
          "name": "tokenId",
          "type": "uint256"
        }
      ],
      "name": "tokenURI",
      "outputs": [
        {
          "internalType": "string",
          "name": "",
          "type": "string"
        }
      ],
      "stateMutability": "view",
      "type": "function"
    },
    {
      "inputs": [
        {
          "internalType": "address",
          "name": "from",
          "type": "address"
        },
        {
          "internalType": "address",
          "name": "to",
          "type": "address"
        },
        {
          "internalType": "uint256",
          "name": "tokenId",
          "type": "uint256"
        }
      ],
      "name": "transferFrom",
      "outputs": [],
      "stateMutability": "nonpayable",
      "type": "function"
    },
    {
      "inputs": [
        {
          "internalType": "address",
          "name": "newOwner",
          "type": "address"
        }
      ],
      "name": "transferOwnership",
      "outputs": [],
      "stateMutability": "nonpayable",
      "type": "function"
    }
  ],
  "bytecode": "0x60806040523480156200001157600080fd5b506040518060400160405280600981526020017f536d617274446f676500000000000000000000000000000000000000000000008152506040518060400160405280600481526020017f545255460000000000000000000000000000000000000000000000000000000081525081600090816200008f919062000412565b508060019081620000a1919062000412565b505050620000c4620000b8620000ca60201b60201c565b620000d260201b60201c565b620004f9565b600033905090565b6000600760009054906101000a900473ffffffffffffffffffffffffffffffffffffffff16905081600760006101000a81548173ffffffffffffffffffffffffffffffffffffffff021916908373ffffffffffffffffffffffffffffffffffffffff1602179055508173ffffffffffffffffffffffffffffffffffffffff168173ffffffffffffffffffffffffffffffffffffffff167f8be0079c531659141344cd1fd0a4f28419497f9722a3daafe3b4186f6b6457e060405160405180910390a35050565b600081519050919050565b7f4e487b7100000000000000000000000000000000000000000000000000000000600052604160045260246000fd5b7f4e487b7100000000000000000000000000000000000000000000000000000000600052602260045260246000fd5b600060028204905060018216806200021a57607f821691505b60208210810362000230576200022f620001d2565b5b50919050565b60008190508160005260206000209050919050565b60006020601f8301049050919050565b600082821b905092915050565b6000600883026200029a7fffffffffffffffffffffffffffffffffffffffffffffffffffffffffffffffff826200025b565b620002a686836200025b565b95508019841693508086168417925050509392505050565b6000819050919050565b6000819050919050565b6000620002f3620002ed620002e784620002be565b620002c8565b620002be565b9050919050565b6000819050919050565b6200030f83620002d2565b620003276200031e82620002fa565b84845462000268565b825550505050565b600090565b6200033e6200032f565b6200034b81848462000304565b505050565b5b8181101562000373576200036760008262000334565b60018101905062000351565b5050565b601f821115620003c2576200038c8162000236565b62000397846200024b565b81016020851015620003a7578190505b620003bf620003b6856200024b565b83018262000350565b50505b505050565b600082821c905092915050565b6000620003e760001984600802620003c7565b1980831691505092915050565b6000620004028383620003d4565b9150826002028217905092915050565b6200041d8262000198565b67ffffffffffffffff811115620004395762000438620001a3565b5b62000445825462000201565b6200045282828562000377565b600060209050601f8311600181146200048a576000841562000475578287015190505b620004818582620003f4565b865550620004f1565b601f1984166200049a8662000236565b60005b82811015620004c4578489015182556001820191506020850194506020810190506200049d565b86831015620004e45784890151620004e0601f891682620003d4565b8355505b6001600288020188555050505b505050505050565b6132c580620005096000396000f3fe608060405234801561001057600080fd5b50600436106101165760003560e01c8063715018a6116100a2578063b88d4fde11610071578063b88d4fde146102cb578063c87b56dd146102e7578063d204c45e14610317578063e985e9c514610333578063f2fde38b1461036357610116565b8063715018a6146102695780638da5cb5b1461027357806395d89b4114610291578063a22cb465146102af57610116565b806323b872dd116100e957806323b872dd146101b557806342842e0e146101d157806342966c68146101ed5780636352211e1461020957806370a082311461023957610116565b806301ffc9a71461011b57806306fdde031461014b578063081812fc14610169578063095ea7b314610199575b600080fd5b61013560048036038101906101309190611fcf565b61037f565b6040516101429190612017565b60405180910390f35b610153610461565b60405161016091906120c2565b60405180910390f35b610183600480360381019061017e919061211a565b6104f3565b6040516101909190612188565b60405180910390f35b6101b360048036038101906101ae91906121cf565b610539565b005b6101cf60048036038101906101ca919061220f565b610650565b005b6101eb60048036038101906101e6919061220f565b6106b0565b005b6102076004803603810190610202919061211a565b6106d0565b005b610223600480360381019061021e919061211a565b61072c565b6040516102309190612188565b60405180910390f35b610253600480360381019061024e9190612262565b6107b2565b604051610260919061229e565b60405180910390f35b610271610869565b005b61027b61087d565b6040516102889190612188565b60405180910390f35b6102996108a7565b6040516102a691906120c2565b60405180910390f35b6102c960048036038101906102c491906122e5565b610939565b005b6102e560048036038101906102e0919061245a565b61094f565b005b61030160048036038101906102fc919061211a565b6109b1565b60405161030e91906120c2565b60405180910390f35b610331600480360381019061032c919061257e565b6109c3565b005b61034d600480360381019061034891906125da565b6109fc565b60405161035a9190612017565b60405180910390f35b61037d60048036038101906103789190612262565b610a90565b005b60007f80ac58cd000000000000000000000000000000000000000000000000000000007bffffffffffffffffffffffffffffffffffffffffffffffffffffffff1916827bffffffffffffffffffffffffffffffffffffffffffffffffffffffff1916148061044a57507f5b5e139f000000000000000000000000000000000000000000000000000000007bffffffffffffffffffffffffffffffffffffffffffffffffffffffff1916827bffffffffffffffffffffffffffffffffffffffffffffffffffffffff1916145b8061045a575061045982610b13565b5b9050919050565b60606000805461047090612649565b80601f016020809104026020016040519081016040528092919081815260200182805461049c90612649565b80156104e95780601f106104be576101008083540402835291602001916104e9565b820191906000526020600020905b8154815290600101906020018083116104cc57829003601f168201915b5050505050905090565b60006104fe82610b7d565b6004600083815260200190815260200160002060009054906101000a900473ffffffffffffffffffffffffffffffffffffffff169050919050565b60006105448261072c565b90508073ffffffffffffffffffffffffffffffffffffffff168373ffffffffffffffffffffffffffffffffffffffff16036105b4576040517f08c379a00000000000000000000000000000000000000000000000000000000081526004016105ab906126ec565b60405180910390fd5b8073ffffffffffffffffffffffffffffffffffffffff166105d3610bc8565b73ffffffffffffffffffffffffffffffffffffffff1614806106025750610601816105fc610bc8565b6109fc565b5b610641576040517f08c379a00000000000000000000000000000000000000000000000000000000081526004016106389061277e565b60405180910390fd5b61064b8383610bd0565b505050565b61066161065b610bc8565b82610c89565b6106a0576040517f08c379a000000000000000000000000000000000000000000000000000000000815260040161069790612810565b60405180910390fd5b6106ab838383610d1e565b505050565b6106cb8383836040518060200160405280600081525061094f565b505050565b6106e16106db610bc8565b82610c89565b610720576040517f08c379a000000000000000000000000000000000000000000000000000000000815260040161071790612810565b60405180910390fd5b61072981611017565b50565b60008061073883611023565b9050600073ffffffffffffffffffffffffffffffffffffffff168173ffffffffffffffffffffffffffffffffffffffff16036107a9576040517f08c379a00000000000000000000000000000000000000000000000000000000081526004016107a09061287c565b60405180910390fd5b80915050919050565b60008073ffffffffffffffffffffffffffffffffffffffff168273ffffffffffffffffffffffffffffffffffffffff1603610822576040517f08c379a00000000000000000000000000000000000000000000000000000000081526004016108199061290e565b60405180910390fd5b600360008373ffffffffffffffffffffffffffffffffffffffff1673ffffffffffffffffffffffffffffffffffffffff168152602001908152602001600020549050919050565b610871611060565b61087b60006110de565b565b6000600760009054906101000a900473ffffffffffffffffffffffffffffffffffffffff16905090565b6060600180546108b690612649565b80601f01602080910402602001604051908101604052809291908181526020018280546108e290612649565b801561092f5780601f106109045761010080835404028352916020019161092f565b820191906000526020600020905b81548152906001019060200180831161091257829003601f168201915b5050505050905090565b61094b610944610bc8565b83836111a4565b5050565b61096061095a610bc8565b83610c89565b61099f576040517f08c379a000000000000000000000000000000000000000000000000000000000815260040161099690612810565b60405180910390fd5b6109ab84848484611310565b50505050565b60606109bc8261136c565b9050919050565b6109cb611060565b60006109d7600861147e565b90506109e3600861148c565b6109ed83826114a2565b6109f781836114c0565b505050565b6000600560008473ffffffffffffffffffffffffffffffffffffffff1673ffffffffffffffffffffffffffffffffffffffff16815260200190815260200160002060008373ffffffffffffffffffffffffffffffffffffffff1673ffffffffffffffffffffffffffffffffffffffff16815260200190815260200160002060009054906101000a900460ff16905092915050565b610a98611060565b600073ffffffffffffffffffffffffffffffffffffffff168173ffffffffffffffffffffffffffffffffffffffff1603610b07576040517f08c379a0000000000000000000000000000000000000000000000000000000008152600401610afe906129a0565b60405180910390fd5b610b10816110de565b50565b60007f01ffc9a7000000000000000000000000000000000000000000000000000000007bffffffffffffffffffffffffffffffffffffffffffffffffffffffff1916827bffffffffffffffffffffffffffffffffffffffffffffffffffffffff1916149050919050565b610b868161152d565b610bc5576040517f08c379a0000000000000000000000000000000000000000000000000000000008152600401610bbc9061287c565b60405180910390fd5b50565b600033905090565b816004600083815260200190815260200160002060006101000a81548173ffffffffffffffffffffffffffffffffffffffff021916908373ffffffffffffffffffffffffffffffffffffffff160217905550808273ffffffffffffffffffffffffffffffffffffffff16610c438361072c565b73ffffffffffffffffffffffffffffffffffffffff167f8c5be1e5ebec7d5bd14f71427d1e84f3dd0314c0f7b2291e5b200ac8c7c3b92560405160405180910390a45050565b600080610c958361072c565b90508073ffffffffffffffffffffffffffffffffffffffff168473ffffffffffffffffffffffffffffffffffffffff161480610cd75750610cd681856109fc565b5b80610d1557508373ffffffffffffffffffffffffffffffffffffffff16610cfd846104f3565b73ffffffffffffffffffffffffffffffffffffffff16145b91505092915050565b8273ffffffffffffffffffffffffffffffffffffffff16610d3e8261072c565b73ffffffffffffffffffffffffffffffffffffffff1614610d94576040517f08c379a0000000000000000000000000000000000000000000000000000000008152600401610d8b90612a32565b60405180910390fd5b600073ffffffffffffffffffffffffffffffffffffffff168273ffffffffffffffffffffffffffffffffffffffff1603610e03576040517f08c379a0000000000000000000000000000000000000000000000000000000008152600401610dfa90612ac4565b60405180910390fd5b610e10838383600161156e565b8273ffffffffffffffffffffffffffffffffffffffff16610e308261072c565b73ffffffffffffffffffffffffffffffffffffffff1614610e86576040517f08c379a0000000000000000000000000000000000000000000000000000000008152600401610e7d90612a32565b60405180910390fd5b6004600082815260200190815260200160002060006101000a81549073ffffffffffffffffffffffffffffffffffffffff02191690556001600360008573ffffffffffffffffffffffffffffffffffffffff1673ffffffffffffffffffffffffffffffffffffffff168152602001908152602001600020600082825403925050819055506001600360008473ffffffffffffffffffffffffffffffffffffffff1673ffffffffffffffffffffffffffffffffffffffff16815260200190815260200160002060008282540192505081905550816002600083815260200190815260200160002060006101000a81548173ffffffffffffffffffffffffffffffffffffffff021916908373ffffffffffffffffffffffffffffffffffffffff160217905550808273ffffffffffffffffffffffffffffffffffffffff168473ffffffffffffffffffffffffffffffffffffffff167fddf252ad1be2c89b69c2b068fc378daa952ba7f163c4a11628f55a4df523b3ef60405160405180910390a46110128383836001611694565b505050565b6110208161169a565b50565b60006002600083815260200190815260200160002060009054906101000a900473ffffffffffffffffffffffffffffffffffffffff169050919050565b611068610bc8565b73ffffffffffffffffffffffffffffffffffffffff1661108661087d565b73ffffffffffffffffffffffffffffffffffffffff16146110dc576040517f08c379a00000000000000000000000000000000000000000000000000000000081526004016110d390612b30565b60405180910390fd5b565b6000600760009054906101000a900473ffffffffffffffffffffffffffffffffffffffff16905081600760006101000a81548173ffffffffffffffffffffffffffffffffffffffff021916908373ffffffffffffffffffffffffffffffffffffffff1602179055508173ffffffffffffffffffffffffffffffffffffffff168173ffffffffffffffffffffffffffffffffffffffff167f8be0079c531659141344cd1fd0a4f28419497f9722a3daafe3b4186f6b6457e060405160405180910390a35050565b8173ffffffffffffffffffffffffffffffffffffffff168373ffffffffffffffffffffffffffffffffffffffff1603611212576040517f08c379a000000000000000000000000000000000000000000000000000000000815260040161120990612b9c565b60405180910390fd5b80600560008573ffffffffffffffffffffffffffffffffffffffff1673ffffffffffffffffffffffffffffffffffffffff16815260200190815260200160002060008473ffffffffffffffffffffffffffffffffffffffff1673ffffffffffffffffffffffffffffffffffffffff16815260200190815260200160002060006101000a81548160ff0219169083151502179055508173ffffffffffffffffffffffffffffffffffffffff168373ffffffffffffffffffffffffffffffffffffffff167f17307eab39ab6107e8899845ad3d59bd9653f200f220920489ca2b5937696c31836040516113039190612017565b60405180910390a3505050565b61131b848484610d1e565b611327848484846116ed565b611366576040517f08c379a000000000000000000000000000000000000000000000000000000000815260040161135d90612c2e565b60405180910390fd5b50505050565b606061137782610b7d565b600060066000848152602001908152602001600020805461139790612649565b80601f01602080910402602001604051908101604052809291908181526020018280546113c390612649565b80156114105780601f106113e557610100808354040283529160200191611410565b820191906000526020600020905b8154815290600101906020018083116113f357829003601f168201915b505050505090506000611421611874565b90506000815103611436578192505050611479565b60008251111561146b578082604051602001611453929190612c8a565b60405160208183030381529060405292505050611479565b61147484611894565b925050505b919050565b600081600001549050919050565b6001816000016000828254019250508190555050565b6114bc8282604051806020016040528060008152506118fc565b5050565b6114c98261152d565b611508576040517f08c379a00000000000000000000000000000000000000000000000000000000081526004016114ff90612d20565b60405180910390fd5b806006600084815260200190815260200160002090816115289190612eec565b505050565b60008073ffffffffffffffffffffffffffffffffffffffff1661154f83611023565b73ffffffffffffffffffffffffffffffffffffffff1614159050919050565b600181111561168e57600073ffffffffffffffffffffffffffffffffffffffff168473ffffffffffffffffffffffffffffffffffffffff16146116025780600360008673ffffffffffffffffffffffffffffffffffffffff1673ffffffffffffffffffffffffffffffffffffffff16815260200190815260200160002060008282546115fa9190612fed565b925050819055505b600073ffffffffffffffffffffffffffffffffffffffff168373ffffffffffffffffffffffffffffffffffffffff161461168d5780600360008573ffffffffffffffffffffffffffffffffffffffff1673ffffffffffffffffffffffffffffffffffffffff16815260200190815260200160002060008282546116859190613021565b925050819055505b5b50505050565b50505050565b6116a381611957565b60006006600083815260200190815260200160002080546116c390612649565b9050146116ea576006600082815260200190815260200160002060006116e99190611f06565b5b50565b600061170e8473ffffffffffffffffffffffffffffffffffffffff16611aa5565b15611867578373ffffffffffffffffffffffffffffffffffffffff1663150b7a02611737610bc8565b8786866040518563ffffffff1660e01b815260040161175994939291906130aa565b6020604051808303816000875af192505050801561179557506040513d601f19601f82011682018060405250810190611792919061310b565b60015b611817573d80600081146117c5576040519150601f19603f3d011682016040523d82523d6000602084013e6117ca565b606091505b50600081510361180f576040517f08c379a000000000000000000000000000000000000000000000000000000000815260040161180690612c2e565b60405180910390fd5b805181602001fd5b63150b7a0260e01b7bffffffffffffffffffffffffffffffffffffffffffffffffffffffff1916817bffffffffffffffffffffffffffffffffffffffffffffffffffffffff19161491505061186c565b600190505b949350505050565b606060405180608001604052806050815260200161324060509139905090565b606061189f82610b7d565b60006118a9611874565b905060008151116118c957604051806020016040528060008152506118f4565b806118d384611ac8565b6040516020016118e4929190612c8a565b6040516020818303038152906040525b915050919050565b6119068383611b96565b61191360008484846116ed565b611952576040517f08c379a000000000000000000000000000000000000000000000000000000000815260040161194990612c2e565b60405180910390fd5b505050565b60006119628261072c565b905061197281600084600161156e565b61197b8261072c565b90506004600083815260200190815260200160002060006101000a81549073ffffffffffffffffffffffffffffffffffffffff02191690556001600360008373ffffffffffffffffffffffffffffffffffffffff1673ffffffffffffffffffffffffffffffffffffffff168152602001908152602001600020600082825403925050819055506002600083815260200190815260200160002060006101000a81549073ffffffffffffffffffffffffffffffffffffffff021916905581600073ffffffffffffffffffffffffffffffffffffffff168273ffffffffffffffffffffffffffffffffffffffff167fddf252ad1be2c89b69c2b068fc378daa952ba7f163c4a11628f55a4df523b3ef60405160405180910390a4611aa1816000846001611694565b5050565b6000808273ffffffffffffffffffffffffffffffffffffffff163b119050919050565b606060006001611ad784611db3565b01905060008167ffffffffffffffff811115611af657611af561232f565b5b6040519080825280601f01601f191660200182016040528015611b285781602001600182028036833780820191505090505b509050600082602001820190505b600115611b8b578080600190039150507f3031323334353637383961626364656600000000000000000000000000000000600a86061a8153600a8581611b7f57611b7e613138565b5b04945060008503611b36575b819350505050919050565b600073ffffffffffffffffffffffffffffffffffffffff168273ffffffffffffffffffffffffffffffffffffffff1603611c05576040517f08c379a0000000000000000000000000000000000000000000000000000000008152600401611bfc906131b3565b60405180910390fd5b611c0e8161152d565b15611c4e576040517f08c379a0000000000000000000000000000000000000000000000000000000008152600401611c459061321f565b60405180910390fd5b611c5c60008383600161156e565b611c658161152d565b15611ca5576040517f08c379a0000000000000000000000000000000000000000000000000000000008152600401611c9c9061321f565b60405180910390fd5b6001600360008473ffffffffffffffffffffffffffffffffffffffff1673ffffffffffffffffffffffffffffffffffffffff16815260200190815260200160002060008282540192505081905550816002600083815260200190815260200160002060006101000a81548173ffffffffffffffffffffffffffffffffffffffff021916908373ffffffffffffffffffffffffffffffffffffffff160217905550808273ffffffffffffffffffffffffffffffffffffffff16600073ffffffffffffffffffffffffffffffffffffffff167fddf252ad1be2c89b69c2b068fc378daa952ba7f163c4a11628f55a4df523b3ef60405160405180910390a4611daf600083836001611694565b5050565b600080600090507a184f03e93ff9f4daa797ed6e38ed64bf6a1f0100000000000000008310611e11577a184f03e93ff9f4daa797ed6e38ed64bf6a1f0100000000000000008381611e0757611e06613138565b5b0492506040810190505b6d04ee2d6d415b85acef81000000008310611e4e576d04ee2d6d415b85acef81000000008381611e4457611e43613138565b5b0492506020810190505b662386f26fc100008310611e7d57662386f26fc100008381611e7357611e72613138565b5b0492506010810190505b6305f5e1008310611ea6576305f5e1008381611e9c57611e9b613138565b5b0492506008810190505b6127108310611ecb576127108381611ec157611ec0613138565b5b0492506004810190505b60648310611eee5760648381611ee457611ee3613138565b5b0492506002810190505b600a8310611efd576001810190505b80915050919050565b508054611f1290612649565b6000825580601f10611f245750611f43565b601f016020900490600052602060002090810190611f429190611f46565b5b50565b5b80821115611f5f576000816000905550600101611f47565b5090565b6000604051905090565b600080fd5b600080fd5b60007fffffffff0000000000000000000000000000000000000000000000000000000082169050919050565b611fac81611f77565b8114611fb757600080fd5b50565b600081359050611fc981611fa3565b92915050565b600060208284031215611fe557611fe4611f6d565b5b6000611ff384828501611fba565b91505092915050565b60008115159050919050565b61201181611ffc565b82525050565b600060208201905061202c6000830184612008565b92915050565b600081519050919050565b600082825260208201905092915050565b60005b8381101561206c578082015181840152602081019050612051565b60008484015250505050565b6000601f19601f8301169050919050565b600061209482612032565b61209e818561203d565b93506120ae81856020860161204e565b6120b781612078565b840191505092915050565b600060208201905081810360008301526120dc8184612089565b905092915050565b6000819050919050565b6120f7816120e4565b811461210257600080fd5b50565b600081359050612114816120ee565b92915050565b6000602082840312156121305761212f611f6d565b5b600061213e84828501612105565b91505092915050565b600073ffffffffffffffffffffffffffffffffffffffff82169050919050565b600061217282612147565b9050919050565b61218281612167565b82525050565b600060208201905061219d6000830184612179565b92915050565b6121ac81612167565b81146121b757600080fd5b50565b6000813590506121c9816121a3565b92915050565b600080604083850312156121e6576121e5611f6d565b5b60006121f4858286016121ba565b925050602061220585828601612105565b9150509250929050565b60008060006060848603121561222857612227611f6d565b5b6000612236868287016121ba565b9350506020612247868287016121ba565b925050604061225886828701612105565b9150509250925092565b60006020828403121561227857612277611f6d565b5b6000612286848285016121ba565b91505092915050565b612298816120e4565b82525050565b60006020820190506122b3600083018461228f565b92915050565b6122c281611ffc565b81146122cd57600080fd5b50565b6000813590506122df816122b9565b92915050565b600080604083850312156122fc576122fb611f6d565b5b600061230a858286016121ba565b925050602061231b858286016122d0565b9150509250929050565b600080fd5b600080fd5b7f4e487b7100000000000000000000000000000000000000000000000000000000600052604160045260246000fd5b61236782612078565b810181811067ffffffffffffffff821117156123865761238561232f565b5b80604052505050565b6000612399611f63565b90506123a5828261235e565b919050565b600067ffffffffffffffff8211156123c5576123c461232f565b5b6123ce82612078565b9050602081019050919050565b82818337600083830152505050565b60006123fd6123f8846123aa565b61238f565b9050828152602081018484840111156124195761241861232a565b5b6124248482856123db565b509392505050565b600082601f83011261244157612440612325565b5b81356124518482602086016123ea565b91505092915050565b6000806000806080858703121561247457612473611f6d565b5b6000612482878288016121ba565b9450506020612493878288016121ba565b93505060406124a487828801612105565b925050606085013567ffffffffffffffff8111156124c5576124c4611f72565b5b6124d18782880161242c565b91505092959194509250565b600067ffffffffffffffff8211156124f8576124f761232f565b5b61250182612078565b9050602081019050919050565b600061252161251c846124dd565b61238f565b90508281526020810184848401111561253d5761253c61232a565b5b6125488482856123db565b509392505050565b600082601f83011261256557612564612325565b5b813561257584826020860161250e565b91505092915050565b6000806040838503121561259557612594611f6d565b5b60006125a3858286016121ba565b925050602083013567ffffffffffffffff8111156125c4576125c3611f72565b5b6125d085828601612550565b9150509250929050565b600080604083850312156125f1576125f0611f6d565b5b60006125ff858286016121ba565b9250506020612610858286016121ba565b9150509250929050565b7f4e487b7100000000000000000000000000000000000000000000000000000000600052602260045260246000fd5b6000600282049050600182168061266157607f821691505b6020821081036126745761267361261a565b5b50919050565b7f4552433732313a20617070726f76616c20746f2063757272656e74206f776e6560008201527f7200000000000000000000000000000000000000000000000000000000000000602082015250565b60006126d660218361203d565b91506126e18261267a565b604082019050919050565b60006020820190508181036000830152612705816126c9565b9050919050565b7f4552433732313a20617070726f76652063616c6c6572206973206e6f7420746f60008201527f6b656e206f776e6572206f7220617070726f76656420666f7220616c6c000000602082015250565b6000612768603d8361203d565b91506127738261270c565b604082019050919050565b600060208201905081810360008301526127978161275b565b9050919050565b7f4552433732313a2063616c6c6572206973206e6f7420746f6b656e206f776e6560008201527f72206f7220617070726f76656400000000000000000000000000000000000000602082015250565b60006127fa602d8361203d565b91506128058261279e565b604082019050919050565b60006020820190508181036000830152612829816127ed565b9050919050565b7f4552433732313a20696e76616c696420746f6b656e2049440000000000000000600082015250565b600061286660188361203d565b915061287182612830565b602082019050919050565b6000602082019050818103600083015261289581612859565b9050919050565b7f4552433732313a2061646472657373207a65726f206973206e6f74206120766160008201527f6c6964206f776e65720000000000000000000000000000000000000000000000602082015250565b60006128f860298361203d565b91506129038261289c565b604082019050919050565b60006020820190508181036000830152612927816128eb565b9050919050565b7f4f776e61626c653a206e6577206f776e657220697320746865207a65726f206160008201527f6464726573730000000000000000000000000000000000000000000000000000602082015250565b600061298a60268361203d565b91506129958261292e565b604082019050919050565b600060208201905081810360008301526129b98161297d565b9050919050565b7f4552433732313a207472616e736665722066726f6d20696e636f72726563742060008201527f6f776e6572000000000000000000000000000000000000000000000000000000602082015250565b6000612a1c60258361203d565b9150612a27826129c0565b604082019050919050565b60006020820190508181036000830152612a4b81612a0f565b9050919050565b7f4552433732313a207472616e7366657220746f20746865207a65726f2061646460008201527f7265737300000000000000000000000000000000000000000000000000000000602082015250565b6000612aae60248361203d565b9150612ab982612a52565b604082019050919050565b60006020820190508181036000830152612add81612aa1565b9050919050565b7f4f776e61626c653a2063616c6c6572206973206e6f7420746865206f776e6572600082015250565b6000612b1a60208361203d565b9150612b2582612ae4565b602082019050919050565b60006020820190508181036000830152612b4981612b0d565b9050919050565b7f4552433732313a20617070726f766520746f2063616c6c657200000000000000600082015250565b6000612b8660198361203d565b9150612b9182612b50565b602082019050919050565b60006020820190508181036000830152612bb581612b79565b9050919050565b7f4552433732313a207472616e7366657220746f206e6f6e20455243373231526560008201527f63656976657220696d706c656d656e7465720000000000000000000000000000602082015250565b6000612c1860328361203d565b9150612c2382612bbc565b604082019050919050565b60006020820190508181036000830152612c4781612c0b565b9050919050565b600081905092915050565b6000612c6482612032565b612c6e8185612c4e565b9350612c7e81856020860161204e565b80840191505092915050565b6000612c968285612c59565b9150612ca28284612c59565b91508190509392505050565b7f45524337323155524953746f726167653a2055524920736574206f66206e6f6e60008201527f6578697374656e7420746f6b656e000000000000000000000000000000000000602082015250565b6000612d0a602e8361203d565b9150612d1582612cae565b604082019050919050565b60006020820190508181036000830152612d3981612cfd565b9050919050565b60008190508160005260206000209050919050565b60006020601f8301049050919050565b600082821b905092915050565b600060088302612da27fffffffffffffffffffffffffffffffffffffffffffffffffffffffffffffffff82612d65565b612dac8683612d65565b95508019841693508086168417925050509392505050565b6000819050919050565b6000612de9612de4612ddf846120e4565b612dc4565b6120e4565b9050919050565b6000819050919050565b612e0383612dce565b612e17612e0f82612df0565b848454612d72565b825550505050565b600090565b612e2c612e1f565b612e37818484612dfa565b505050565b5b81811015612e5b57612e50600082612e24565b600181019050612e3d565b5050565b601f821115612ea057612e7181612d40565b612e7a84612d55565b81016020851015612e89578190505b612e9d612e9585612d55565b830182612e3c565b50505b505050565b600082821c905092915050565b6000612ec360001984600802612ea5565b1980831691505092915050565b6000612edc8383612eb2565b9150826002028217905092915050565b612ef582612032565b67ffffffffffffffff811115612f0e57612f0d61232f565b5b612f188254612649565b612f23828285612e5f565b600060209050601f831160018114612f565760008415612f44578287015190505b612f4e8582612ed0565b865550612fb6565b601f198416612f6486612d40565b60005b82811015612f8c57848901518255600182019150602085019450602081019050612f67565b86831015612fa95784890151612fa5601f891682612eb2565b8355505b6001600288020188555050505b505050505050565b7f4e487b7100000000000000000000000000000000000000000000000000000000600052601160045260246000fd5b6000612ff8826120e4565b9150613003836120e4565b925082820390508181111561301b5761301a612fbe565b5b92915050565b600061302c826120e4565b9150613037836120e4565b925082820190508082111561304f5761304e612fbe565b5b92915050565b600081519050919050565b600082825260208201905092915050565b600061307c82613055565b6130868185613060565b935061309681856020860161204e565b61309f81612078565b840191505092915050565b60006080820190506130bf6000830187612179565b6130cc6020830186612179565b6130d9604083018561228f565b81810360608301526130eb8184613071565b905095945050505050565b60008151905061310581611fa3565b92915050565b60006020828403121561312157613120611f6d565b5b600061312f848285016130f6565b91505092915050565b7f4e487b7100000000000000000000000000000000000000000000000000000000600052601260045260246000fd5b7f4552433732313a206d696e7420746f20746865207a65726f2061646472657373600082015250565b600061319d60208361203d565b91506131a882613167565b602082019050919050565b600060208201905081810360008301526131cc81613190565b9050919050565b7f4552433732313a20746f6b656e20616c7265616479206d696e74656400000000600082015250565b6000613209601c8361203d565b9150613214826131d3565b602082019050919050565b60006020820190508181036000830152613238816131fc565b905091905056fe68747470733a2f2f676174657761792e70696e6174612e636c6f75642f697066732f516d5963586e4a54614c476372715569426152525077726b794b68525a5638465532477643654379754e596b7169a264697066735822122057ad9c2a6b62820c139de50e7b592b73a05c8a8dbe95ef10606d18b6f9c179bd64736f6c63430008110033",
  "linkReferences": {},
  "deployedLinkReferences": {}
}